:090000000221FB8FFF22D28C22A9
:0D000B0002199FC2C7D2C5D2C475C26422BB
:0D001B00021CACE4900126F0A3F0A3F0223B
:10002B00020EF6EF4E601505A105A105A105A10570
:0D003B00A105A105A1EF1F70EA1E80E722BC
:10004B000207EB90017012200E7F677E987DFF7C7C
:10005B0000900170121FCDC3121F6660147FDF7EEC
:10006B00207DF77C00900170121FCDC3121F6670AC
:10007B0023E49000A3F0900174E0900153F07F0013
:10008B007E007DFF7C00120FB6900163E07002E1F1
:10009B006BE4F0227F777E887DFF7C0090017012ED
:1000AB001FCDC3121F6660147F9F7E607DF77C009F
:1000BB00900170121FCDC3121F667023E49000A332
:1000CB00F0900174E0900153F07FFF7E007D007C87
:1000DB0000120FB6900163E07002E16BE4F0227F37
:1000EB00277ED87DFF7C00900170121FCDC3121F9D
:1000FB006660147F5F7EA07DF77C00900170121FFD
:10010B00CDC3121F667023E49000A3F0900174E03E
:10011B00900153F07F007EFF7D007C00120FB690A4
:10012B000163E07002E16BE4F0227F577EA87DFF54
:10013B007C00900170121FCDC3121F6660147F1FCD
:10014B007EE07DF77C00900170121FCDC3121F66FD
:10015B007023E49000A3F0900174E0900153F07FC2
:10016B00FF7EFF7DFF7C00120FB6900163E07002F3
:10017B00E16BE4F0227F177EE87DFF7C009001703D
:10018B00121FCDC3121F6660147FEF7E107DF77CAC
:10019B0000900170121FCDC3121F667023E49000F4
:1001AB00A3F0900174E0900153F07F007E807DFFFF
:1001BB007C00120FB6900163E07002E16BE4F02259
:1001CB007FC77E387DFF7C00900170121FCDC3125C
:1001DB001F6660147FD77E287DF77C00900170121C
:1001EB001FCDC3121F667023E49000A3F09001741F
:1001FB00E0900153F07F007EFF7DFF7C00120FB675
:10020B00900163E07002E16BE4F0227FCD7E327DE2
:10021B00FF7C00900170121FCDC3121F6660147F0C
:10022B004F7EB07DF77C00900170121FCDC3121F63
:10023B00667023E49000A3F0900174E0900153F0FA
:10024B007F887EAA7D337C00120FB6900163E0702D
:10025B0002E16BE4F0227FDF7E207DFF7C009001CA
:10026B0070121FCDC3121F6660147F8F7E707DF7D7
:10027B007C00900170121FCDC3121F667023E49097
:10028B0000A3F0900174E0900153F07FFF7E007D9E
:10029B00997C00120FB6900163E07002E16BE4F001
:1002AB00227FB77E487DFF7C00900170121FCDC36B
:1002BB00121F6660147F6F7E907DF77C009001703B
:1002CB00121FCDC3121F667023E49000A3F09001A0
:1002DB0074E0900153F07F227EFF7D227C00120F91
:1002EB00B6900163E07002E16BE4F0227F977E68C9
:1002FB007DFF7C00900170121FCDC3121F6660142E
:10030B007FAF7E507DF77C00900170121FCDC31222
:10031B001F667023E49000A3F0900174E0900153EA
:10032B00F07F667E997D007C00120FB6900163E032
:10033B007002E16BE4F0227FFD7E027DFF7C00907A
:10034B000170121FCDC3121F6660147FCF7E307DEC
:10035B00F77C00900170121FCDC3121F667023E44F
:10036B009000A3F0900174E0900153F07F007E3376
:10037B007D997C00120FB6900163E07002E16BE493
:10038B00F0227FF77E087DF77C00900170121FCD65
:10039B00C3121F6660147FAF7E507DFF7C009001FF
:1003AB0070121FCDC3121F667023E49000A3F09050
:1003BB000174E0900153F07F007E667D997C001202
:1003CB000FB6900163E07002E16BE4F0227FB77E21
:1003DB00487DF77C00900170121FCDC3121F666021
:1003EB00147F8F7E707DFF7C00900170121FCDC338
:1003FB00121F667023E49000A3F0900174E090014B
:10040B0053F07FC07E007DFF7C00120FB69001631E
:10041B00E07002E16BE4F0227F977E687DF77C0051
:10042B00900170121FCDC3121F6660147F0F7EF0F8
:10043B007DFF7C00900170121FCDC3121F667023CD
:10044B00E49000A3F0900174E0900153F07FFF7EE5
:10045B00337DFF7C00120FB6900163E07002E16BFD
:10046B00E4F0227F877E787DFF7C00900170121F65
:10047B00CDC3121F6660147F777E887DF77C00905A
:10048B000170121FCDC3121F667023E49000A3F0FE
:10049B00900174E0900153F07F337EFF7D007C0070
:1004AB00120FB6900163E07002E16BE4F0227F570C
:1004BB007EA87DF77C00900170121FCDC3121F66C2
:1004CB0060147FD77E287DFF7C00900170121FCDBA
:1004DB00C3121F667023E49000A3F0900174E090A8
:1004EB000153F07F117EFF7D007C00120FB690014F
:1004FB0063E07002E16BE4F0227F4D7EB27DFF7C06
:10050B0000900170121FCDC3121F6660147F2F7EE7
:10051B00D07DF77C00900170121FCDC3121F667047
:10052B004D9000A6E0B40208A3E09000A3F0801663
:10053B009000A3E004F0D3940740037401F0900003
:10054B00A3E09000A7F09000A67401F0E49000A83F
:10055B00F090012FF09000F112201A000000009093
:10056B0000ED12201A00000000900174E1657FFF7E
:10057B007E007DFF7C00900170121FCDC3121F66A1
:10058B0060147F0F7EF07DF77C00900170121FCD01
:10059B00C3121F6670057F01021B1B7F6F7E907D50
:1005AB00FF7C00900170121FCDC3121F6660147F79
:1005BB00FF7E007DF77C00900170121FCDC3121FD0
:1005CB006670329000A3E070199000A2E0C39414FF
:1005DB004002E168E004F0A3E06002E168121ACD8A
:1005EB00E1689000A1E0C394FE505EE004F0E0FFF0
:1005FB001218A6E1687F477EB87DFF7C00900170E2
:10060B00121FCDC3121F6660147F7F7E807DF77C27
:10061B0000900170121FCDC3121F66702E9000A3A5
:10062B00E070159000A2E0D39400401DE014F0A3FD
:10063B00E07016121ACD80119000A1E0D394014006
:10064B0008E014F0E0FF1218A6E1687F377EC87D42
:10065B00F77C00900170121FCDC3121F6660147FD0
:10066B00A77E587DFF7C00900170121FCDC3121F17
:10067B0066706B9000A3E0603BE4F0900174E09037
:10068B000153F07F007E007DFF7C00120FB69001BE
:10069B0063E06002E4F0900161E0700204F090010D
:1006AB0061E0B401089000A87408F0802FE490007A
:1006BB00A8F08028900161E004F0C394024002E4AA
:1006CB00F0900161E0FFB401089000A87408F0807D
:1006DB0005E49000A8F0EF7003121ACD807F7F170E
:1006EB007EE87DF77C00900170121FCDC3121F6650
:1006FB0060147FCF7E307DFF7C00900170121FCD88
:10070B00C3121F66705A90012DE004F0C39402408F
:10071B0002E4F090012DE0FF70069000A87407F042
:10072B00EFB4010E900163E06002E4F09000A87456
:10073B0006F09000A67402F09000A3740AF0E49007
:10074B00012FF09000F112201A000000009000ED34
:10075B0012201A000000009000A2120FA9121BF722
:10076B0022C29FD29EC29DC2CDC2CC438780900134
:10077B006612201A0000061AE47B0AFAF9F89001B7
:10078B0066121FB1121ED490016AEBF09001661233
:10079B001FB1E47B0AFAF9F8121ED49001661220FD
:1007AB000E90016AE0C394054019900166121FB1C7
:1007BB00EF2401FFE43EFEE43DFDE43CFC900166CA
:1007CB0012200EE589540F4420F58943C9A09001EE
:1007DB0066121FB1EFF404F58DD28ED299D29C2202
:1007EB00C0E0E8C0E0C285D2847825A69FD0E0F8AF
:0307FB00D0E03219
:1008000090017CEDF090017BEFF06401600201B695
:100810007F0C121CDD9000F1121FD9E47B02FAF963
:10082000F8C3121F6650289000F112201A00000031
:10083000009000ED121FD9E47B07F8C3121F665029
:100840000E9000ED12201A0000000078247601E4DA
:10085000FFFEFDFC9000F1121FCDC3121F66701049
:1008600090017CE0900153F07F007E007DFFC1F09D
:10087000E47F01FEFDFC9000F1121FCDC3121F6644
:10088000701090017CE0900153F07F007EFF7D00AE
:10089000C1F0E47F02FEFDFC9000F1121FCDC312F7
:1008A0001F666002C1F590017CE0900153F07FFF6C
:1008B0007E007D00C1F090017BE06402600221496E
:1008C0007F01121CDD9000F1121FD9E47B7FFAF941
:1008D000F8C3121F6650359000F112201A00000074
:1008E000009000ED121FD9E47B02F8C3121F66507E
:1008F0001B9000ED12201A0000000090012EE00471
:10090000F0D394044006E4F078247601E4FFFEFD81
:10091000FC9000ED121FCDC3121F6670028198E497
:100920007F01FEFDFC9000ED121FCDC3121F66700B
:10093000028109E47F02FEFDFC9000ED121FCDC391
:10094000121F666002C1F5A11B90017BE064037079
:10095000457F0C121CDD9000ED121FD9E47B06FAD6
:10096000F9F8C3121F664002C1BC9000ED12201AB4
:10097000000000009000F1121FD9E47B0EF8C312B2
:100980001F664002C1BC9000F112201A0000000056
:1009900078247601C1BC90017BE064046002418C44
:1009A0007F01121CDD9000F1121FD9E47B7FFAF960
:1009B000F8C3121F6650289000F112201A000000A0
:1009C000009000ED121FD9E47B06F8C3121F665099
:1009D0000E9000ED12201A0000000078247601E449
:1009E000FFFEFDFC9000ED121FCDC3121F667002CA
:1009F0008109E47F01FEFDFC9000ED121FCDC312C2
:100A00001F6670028198E47F02FEFDFC9000ED12EB
:100A10001FCDC3121F667002A11BE47F03FEFDFC05
:100A20009000ED121FCDC3121F6670026190E47F2B
:100A300004FEFDFC9000ED121FCDC3121F66700274
:100A400061F4E47F05FEFDFC9000ED121FCDC312A2
:100A50001F66702212178C9000F1121FCDC3747F95
:100A60009BFFE49AFEE499FDE498FCE47B02FAF92A
:100A7000F8121ED481E3E47F06FEFDFC9000ED1227
:100A80001FCDC3121F666002C1F5A10390017BE078
:100A900064056002A1307F01121CDD9000F1121F7D
:100AA000D9E47B7FFAF9F8C3121F6650289000F151
:100AB00012201A000000009000ED121FD9E47B0DF7
:100AC000F8C3121F66500E9000ED12201A000000AD
:100AD0000078247601E4FFFEFDFC9000ED121FCDAE
:100AE000C3121F667002A11BE47F01FEFDFC900093
:100AF000ED121FCDC3121F6670028198E47F02FEC3
:100B0000FDFC9000ED121FCDC3121F66700261D76D
:100B1000E47F03FEFDFC9000ED121FCDC3121F66A3
:100B200070028109E47F04FEFDFC9000ED121FCDF0
:100B3000C3121F6670089000F1121FB181E3E47FB9
:100B400005FEFDFC9000ED121FCDC3121F66700262
:100B5000814AE47F06FEFDFC9000ED121FCDC3121A
:100B60001F66701A9000F1121FB1CDEFCD121797CA
:100B7000E47B02FAF9F89000F1121FB1802FE47FB4
:100B800007FEFDFC9000ED121FCDC3121F66702200
:100B900012178C9000F1121FCDC3747F9BFFE49A53
:100BA000FEE499FDE498FCE47B02FAF9F8121ED405
:100BB000802BE47F08FEFDFC9000ED121FCDC312D8
:100BC0001F66701E9000F1121FB1CDEFCD90017C19
:100BD000E0FB7F0212179E9000F1121FB1CDEFCD06
:100BE0008032E47F09FEFDFC9000ED121FCDC312A0
:100BF0001F6670299000F1121FB1C3747F9FFD9092
:100C0000017CE0FB7F0212179E9000F1121FB1C31E
:100C1000747F9FFD90017CE0FB7F01A12DE47F0AA2
:100C2000FEFDFC9000ED121FCDC3121F66702D7BE0
:100C300002FAF9F89000F1121FB1121ED4CDEFCDD7
:100C400090017CE0FB7F0212179E9000F1121FB111
:100C5000CDEFCD90017CE0FBE4FFA12DE47F0BFE06
:100C6000FDFC9000ED121FCDC3121F66703E900078
:100C7000F1121FCDC3747F9BFFE49AFEE499FDE45B
:100C800098FCE47B02FAF9F8121ED4CDEFCD900166
:100C90007CE0FB7F0212179E9000F1121FB1C3741B
:100CA0007F9FFD90017CE0FBE4FFA12DE47F0CFE23
:100CB000FDFC9000ED121FCDC3121F667031900035
:100CC000F1121FB1CDEFCD1217979000F1121FB1A5
:100CD000CDEFCD90017CE0FB7F0112179E9000F1DB
:100CE000121FB1CDEFCD90017CE0FB7F02803EE48E
:100CF0007F0DFEFDFC9000ED121FCDC3121F66603C
:100D000002C1F512178C9000F1121FB1C3747F9FBE
:100D1000FD90017CE0FB7F0112179E9000F1121FF5
:100D2000B1C3747F9FFD90017CE0FB7F0202179EA0
:100D300090017BE064066002C1607F0C121CDD90B4
:100D400000F1121FD9E47B7FFAF9F8C3121F665035
:100D5000289000F112201A000000009000ED121FF0
:100D6000D9E47B06F8C3121F66500E9000ED1220E6
:100D70001A0000000078247601E4FFFEFDFC9000DC
:100D8000ED121FCDC3121F667012900126747FF002
:100D90009000F1121FB1900127EF8023E47F01FE44
:100DA000FDFC9000ED121FCDC3121F66701690005F
:100DB000F1121FB1C3747F9F900126F0A3747FF0DE
:100DC000E4A3F022E47F02FEFDFC9000ED121FCDB3
:100DD000C3121F667014900126F0A3747FF0900078
:100DE000F1121FB1900128EFF022E47F03FEFDFC19
:100DF0009000ED121FCDC3121F667013900126F0F4
:100E00009000F1121FB1C3747F9F900127801FE4EF
:100E10007F04FEFDFC9000ED121FCDC3121F667013
:100E2000139000F1121FB1900126EFF0E4A3F0A39C
:100E3000747FF022E47F05FEFDFC9000ED121FCDD3
:100E4000C3121F666002C1F5900126747FF0E4A30F
:100E5000F09000F1121FB1C3747F9F900128F0221F
:100E600090017BE064076002C1F57F0C121CDD90ED
:100E7000012EE004F0D39401403BE4F09000F11225
:100E80001FD9E47B05FAF9F8C3121F6650279000BA
:100E9000F112201A000000009000ED121FD9E40B9F
:100EA000F8C3121F66500E9000ED12201A000000C9
:100EB000007824760190012EE0B401269000ED1216
:100EC0001FB190013075F004EF12204BEE25E025A4
:100ED000E02583F583121FB190017CE0900153F06F
:100EE000801090017CE0900153F07F007E007D0037
:100EF0007C00120FB622C0E0C0F0C083C082C0D018
:100F000075D01030CE16780BE67011C2CEC2CA531F
:100F1000C9FB7601F5CCF5CDD2CA807AA2CEE433F6
:100F2000780B566071C2CE43C90C7600AFCB08E493
:100F3000F608EFF6790DE7ADCA18F6ED08F618E6F3
:100F4000FA08E6FBC394A0EA940F503A9000FC1212
:100F50001FB17801121F9E9000FC12200ED3EB945B
:100F6000D0EA940740119000FC121FB1EF4401FF3A
:100F7000EC9000FC12200E780A06E6C39420401480
:100F800078237601800E9000FC12201A00000000E9
:100F9000780A7600C2CA30CF02C2CFD0D0D082D079
:100FA00083D0F0D0E0329000A2E0900153F07D00B9
:100FB0007F007E007C0090014F12200E90014F12A6
:100FC0001FB17810121F779000A0EFF090014F1220
:100FD0001FB17808121F7790009FEFF090014F1219
:100FE0001FB190009EEFF09000A3E07003121BF77A
:080FF000900153E0FF021AD248
:10100000E490014FF07F01FE121D4890000120B3D3
:1010100018121FB1EF2401FFE43EFEE43DFDE43C65
:10102000FC90000112200E800712201A0000000020
:101030009000F820B418121FB1EF2401FFE43EFE27
:10104000E43DFDE43CFC9000F812200E80071220E5
:101050001A0000000090004620B018121FB1EF24C3
:1010600001FFE43EFEE43DFDE43CFC90004612201E
:101070000E800712201A00000000E47F06FEFDFC2F
:10108000900001121FCDC3121F664024E47F06FEAC
:10109000FDFC9000F8121FCDC3121F665012E47FB2
:1010A00006FEFDFC900046121FCDC3121F66407263
:1010B000E47F06FEFDFC9000F8121FCDC3121F66F0
:1010C0004024E47F06FEFDFC900001121FCDC312F8
:1010D0001F665012E47F06FEFDFC900046121FCDF5
:1010E000C3121F66403CE47F06FEFDFC90004612E2
:1010F0001FCDC3121F66500241A8E47F06FEFDFC0F
:10110000900001121FCDC3121F66400241A8E47F68
:1011100006FEFDFC9000F8121FCDC3121F664002B0
:1011200041A8900005E070137823F69000FC12208F
:101130001A000000009000057401F07823E67002A8
:101140004155E4900150F0900150E0FFC3941040ED
:10115000024124EF25E025E0244EF582E43400F539
:1011600083121FB19000FC121FCDC3121F666022B4
:10117000900150E025E025E024A9F582E43400F553
:1011800083121FB19000FC121FCDC3121F666002B4
:10119000411C90014F7401F0E47F06FEFDFC9000BD
:1011A00001121FCDC3121F664019900150E025E0C7
:1011B00025E02406F582E43400F583121FB1900087
:1011C0008E8054E47F06FEFDFC9000F8121FCDC314
:1011D000121F664019900150E025E025E02406F535
:1011E00082E43400F583121FB19000928029E47FDD
:1011F00006FEFDFC900046121FCDC3121F66402460
:10120000900150E025E025E02406F582E43400F565
:1012100083121FB190009612200E8008900150E0BA
:1012200004F02147E47823F69000FC12201A000015
:101230000000E4900005F090000112201A00000068
:10124000009000F812201A000000009000461220C2
:101250001A00000000E47F06FEFDFC900001121F52
:10126000CDC3121F66400590008E802CE47F06FEE1
:10127000FDFC9000F8121FCDC3121F6640059000C0
:10128000928015E47F06FEFDFC900046121FCDC340
:10129000121F664029900096121FB190004A12203A
:1012A0000EE49000A3F08016E4900005F07823E6A9
:1012B000600CE4F69000FC12201A0000000090017F
:1012C0004FE06003121BF722900179EFF0121A0928
:1012D00090017AEFF024FE7002819614700281343E
:1012E00024FD7002810604600281CF780F06E6C3F8
:1012F00094074063900163E06002E4F09000A8E08E
:10130000B406031200069000A6E0B40208A3E09021
:1013100000A3F080199000A3E004F0D394074006E6
:10132000E4780FF604F09000A3E09000A7F090009E
:10133000A67401F0E49000A8F090012FF09000F165
:1013400012201A000000009000ED12201A00000088
:1013500000120FA6121BF7780FE6C3940740028114
:10136000CF9000A3E0640A704C90014C7414F0E438
:101370009000A3F09000A8E0B406031200069001CC
:101380002EE004F0D394064002E4F090012EE02514
:10139000E025E02430F582E43401F583121FB1909A
:1013A0000179E0900153F0120FB6900161E0B401B1
:1013B000028044804AE49000A3F09000A8E0B406C4
:1013C0000312000690012EE004F0D394064002E4DC
:1013D000F090012EE025E025E02430F582E4340190
:1013E000F583121FB19000A2E0900153F0120FB6E6
:1013F000900161E0B401089000A87408F08194E4C1
:101400009000A8F08194900161E07F0070027F015C
:10141000900161EFF0BF01089000A87408F080050A
:10142000E49000A8F09000A2E0900153F07DFF123C
:101430000FB081CC90012BE004F0C394024002E491
:10144000F090012BE064017015900163E06002E40C
:10145000F09000A67402F09000A87406801390012A
:1014600063E06002E4F09000A67402F09000A874BB
:1014700007F09000A3740AF0E490012FF09000F1BF
:1014800012201A000000009000ED12201A00000047
:1014900000120FA680369000A3E070189000A2E022
:1014A00004F0D394144002E4F09000A3E0701D1205
:1014B0001ACD80189000A1E02402F0E0D394FE4001
:1014C000037401F09000A1E0FF1218A6121BF7129E
:1014D0001A0990017AEFF070F62290017DEFF0A3E7
:1014E000EDF090015EE475F001121E57FEC3E5F0C9
:1014F0009488EE94134014E490015EF0A3F0900100
:101500007EE094AA5005E4900160F090017EE0D363
:1015100094C84020900160E004F0940A4045E4F053
:10152000900164F0A3F090015BE004F09407403375
:10153000E4F0802F900164E475F001121E57FEC3A1
:10154000E5F094E8EE94034013E4900164F0A3F016
:1015500090015BE004F094074002E4F07F017E001C
:10156000121D4890017EE0FB90017DF090015BE050
:10157000B407004002C14B90157D25E073A18BA1FB
:101580009EA1A7A1BCA1DFC102C12490017DE0FD05
:10159000E4FF12179E90017EE0FBE4FD8033900192
:1015A0007EE0FBE4FD804190017EE0FBE4FDFF1264
:1015B000179E90017DE0FDA3E0FB801590017DE08A
:1015C000FDA3E0FBE4FF12179E90017DE0FDA3E088
:1015D000FB7F0212179E90017EE0FBE4FD80679086
:1015E000017DE0FDA3E0FBE4FF12179E90017EE089
:1015F000FBE4FD7F0212179E90017DE0FDA3E0FB5E
:10160000804490017EE0FBE4FDFF12179E90017D77
:10161000E0FDA3E0FB7F0212179E90017DE0FDA399
:10162000E0FB802290017DE0FDA3E0FBE4FF1217C8
:101630009E90017DE0FDA3E0FB7F0212179E9001CA
:101640007DE0FDA3E0FB7F0112179E7F0022900149
:1016500081EFF0900163E0700204F0EDC3943C4030
:101660000990015CE4F0A3740AF0EDD394325014B5
:1016700090015CE475F032121E5790015C7403F027
:10168000A374E8F0900164E475F001121E57FED3D4
:1016900090015DE095F090015CE09E5020E49001A7
:1016A00064F0A3F0900160E004F0C3947F400EE486
:1016B000F090015BE004F094064002E4F090015BDE
:1016C000E0146037146057146076147002E16614F9
:1016D000604C24056002E189900160E0FD7B64E4D8
:1016E000FF12179E900160E0FFC3747F9FFD7B6433
:1016F0007F0212179E7B64E4FDE184900160E0FFAD
:10170000C3747F9FFD7B64E4FF12179E7B64E4FD3E
:101710007F0212179E900160E0FD7B6480667B640F
:10172000E4FDFF12179E900160E0FD7B647F0212D2
:10173000179E900160E0FFC3747F9FFD7B6480442F
:10174000900160E0FD7B64E4FF12179E900160E071
:10175000FFC3747F9FFD7B647F0212179E90016020
:10176000E0FD7B64801E900160E0FFC3747F9FFDFD
:101770007B64E4FF12179E7B64E4FD7F0212179ED8
:101780007B647D7F7F0112179E7F00229000F11203
:101790001FB1C3747F9FFD90017CE0FBE4FF9001CB
:1017A0007FEFF070079000A0EDF0801990017FE0CE
:1017B000FFB4010790009FEDF0800AEF6402703BD8
:1017C00090009EEDF0900163E07021CFEBCFED8FA4
:1017D000F0A4FFAEF07C007D14121DCC90017FE0E0
:1017E0002426F582E43401F583EFF02290017FE0B6
:0C17F0002426F582E43401F583EDF0229C
:10180000121D8E7F1E7E00121D48759618E4F592FB
:1018100043973F7593FD7F01121D61E4FF120003A2
:1018200012001E121D067F0A7E00121D487F087ED0
:1018300000121BB07F087E00121B67121D2A121DAA
:10184000A09000A3E02406780FF69000A1E07003BA
:10185000740CF09000A1E0FF1218A6D2AF90004ADD
:1018600012201A0000FF00E49000A3F0120006E42A
:10187000FF12000312100090004A121FB190009A4C
:10188000121FCDC3121F6660E690004A121FB1906E
:101890000153740AF0120FB690004A121FB1900063
:1018A0009A12200E80C9EFC394014077EFD394FEC3
:1018B0005071C28EC374FF9FFFE49400FE7C037DD1
:1018C000E8121DBA90014FEEF0A3EFF0FBCAEECA8A
:1018D000E4C39BFFE49AFE74019400FDE49400FCD1
:1018E000E4FB7A01F9F81222D490016CEFF0900138
:1018F0004FE0FEA3E0FBE4C39BFFE49EFE74019473
:1019000000FDE49400FCE4FB7A01F9F81222D4CF44
:10191000EBCF90016EEFF090016CE0F58D8F8BD2E4
:10192000ABD28E22EFC39405503DEF94004038783F
:1019300024E664017068F690012FE0FEEF75F00771
:10194000A42403F582E43401F583E5822EF582E4D4
:101950003583F583E09000A3F090012FE004F0D3ED
:101960009406403AE4F022EF640570327824E6B43D
:10197000012CE4F690012EF0A3F09000F112201A51
:10198000000000009000ED12201A0000000012225A
:10199000877C007D07121E21ED049000A3F022C079
:1019A000E0C083C082C0D0E8C0E0EFC0E090016B2F
:1019B000E0F58C90016DE0F58A780906E6D3947F16
:1019C000400276007809E6FF900126E0D39F4003AD
:1019D000D38001C39297900127E0D39F4003D38027
:1019E00001C39290900128E0D37809964003D380F8
:1019F00001C392B190016FE004F0D0E0FFD0E0F8B5
:101A0000D0D0D082D083D0E032E4900180F090003A
:101A1000A4E0605420B31930B01630B4137F287E90
:101A200000121D4820B34130B03E30B43B7F052248
:101A300030B31920B01630B4137F287E00121D4831
:101A400030B32520B02230B41F7F022230B31930CA
:101A5000B01620B4137F287E00121D4830B3093021
:101A6000B00620B4037F03227F0022900154EEF0E1
:101A7000A3EFF075A15575A1AA43B108E4F508D309
:101A800090015AE09508900159E09400403590018A
:101A900054E0FEA3E0FF8E858F84121E6DFC121EA3
:101AA0006DE5F0FFECFEEF8E8FF58E75869A900156
:101AB00054E475F002121E57740229F9E43AFA054B
:101AC0000880BC75A15575A1AA53B1F3229000A25C
:101AD000E0FFCBEFCB9000A0E08BF0A4FFAEF07C5A
:101AE000007D14121DCC900126EFF090009FE08B3A
:101AF000F0A4FFAEF07C007D14121DCC900127EF06
:101B0000F0CFEBCF90009EE08FF0A4FFAEF07C0012
:101B10007D14121DCC900128EFF0229000A67402D3
:101B2000F09000A8EFF075F007A42403F582E434E8
:101B300001F583E09000A3F0121BF7E490012FF071
:101B40009000F112201A000000009000ED12201AFF
:101B5000000000009000A2E0900153F07F007E00A2
:101B60007D007C00020FB690014FEEF0A3EFF05322
:101B7000C9DF53891F43891090014FE0FEA3E0FBAA
:101B8000E4C39BFFE49EFE74019400FDE49400FC1A
:101B90007808121F8A90016CEFF0E4C39BFF90015C
:101BA0006EEFF090016CE0F58D8F8BD2ABD28E2270
:101BB00090014FEEF0A3EFF053C9EF5389F1438941
:101BC0000190014FE0FEA3E0FBE4C39BFFE49EFE17
:101BD00074019400FDE49400FC7808121F8A9001BF
:101BE0006BEFF0E4C39BFF90016DEFF090016BE0B1
:101BF000F58C8F8AD2A9227E237F187B017A007907
:101C00008E900159E4F0A37402F0121A6B7E237FC8
:101C10001C7B017A007992900159E4F0A37402F0E0
:101C2000121A6B7E237F207B017A007996900159EE
:101C3000E4F0A37402F0021A6BEF25E0FF90012993
:101C4000E0FEEFD39E400CE490016FF0900129EF8D
:101C5000F0801A90014CE0FD90016FE0D39D400DA3
:101C6000E4F0EED39F4006900129E014F0900129A2
:101C7000E0FF22EFC330E001D392B5EFC330E101C2
:101C8000D39295EFC330E201D39296EFC330E301D4
:101C9000D39294EFC330E401D392B2EFC330E501A5
:101CA000D39293EFC330E601D3929222C0E0C08377
:101CB000C082C0D075D01890016CE0F58D90016E97
:101CC000E0F58B780E06E6C394054008782176018E
:101CD000780E7600D0D0D082D083D0E03290012A26
:101CE000E06F6021C28EEFB4010543C9A0800FEF01
:101CF000B4040843C92053C97F800353C9DFD28E7F
:101D000090012AEFF022902318121FBD90008E122E
:101D1000200E90231C121FBD90009212200E9023C3
:101D200020121FBD90009602200EC2CDC2CCC2C9A7
:101D300053C9BF43C90843C904D2CBD2C8E4F5CCC8
:101D4000F5CD43C602D2AD22CDEFCDCCEECCED4CDD
:101D5000600E7FE87E0312002EED1D70F11C80EEF8
:101D60002275A15575A1AAEF600543B10180035307
:101D7000B1FEE4F5A1F5FF22EFD39409500F7400F2
:101D80002FF582E43401F583E0FF121C732275A164
:101D90005575A1AAE5B954F84406F5B9E4F5A122B0
:101DA000439A08439A01C281C280C285D2EBD28491
:101DB00022C28CC297C290C2B122EF8DF0A4A8F0CB
:101DC000CF8CF0A428CE8DF0A42EFE22BC000BBE3A
:101DD0000029EF8DF084FFADF022E4CCF875F00817
:101DE000EF2FFFEE33FEEC33FCEE9DEC984005FC4C
:101DF000EE9DFE0FD5F0E9E4CEFD22EDF8F5F0EE14
:101E00008420D21CFEADF075F008EF2FFFED33FDFE
:101E10004007985006D5F0F222C398FD0FD5F0EA9E
:101E200022C2D5EC30E709B2D5E4C39DFDE49CFCA9
:101E3000EE30E715B2D5E4C39FFFE49EFE121DCC41
:101E4000C3E49DFDE49CFC8003121DCC30D507C388
:101E5000E49FFFE49EFE22C5F0F8A3E028F0C5F061
:101E6000F8E582158270021583E038F022BB010A82
:101E700089828A83E0F5F0A3E022500687F009E723
:101E80001922BBFE07E3F5F009E3192289828A8350
:101E9000E493F5F07401932275F008758200EF2F3A
:101EA000FFEE33FECD33CDCC33CCC58233C5829B20
:101EB000ED9AEC99E58298400CF582EE9BFEED9A46
:101EC000FDEC99FC0FD5F0D6E4CEFBE4CDFAE4CCE2
:101ED000F9A88222B800C1B90059BA002DEC8BF0E4
:101EE00084CFCECDFCE5F0CBF97818EF2FFFEE33A1
:101EF000FEED33FDEC33FCEB33FB10D703994004CC
:101F0000EB99FB0FD8E5E4F9FA227818EF2FFFEEF2
:101F100033FEED33FDEC33FCC933C910D7059BE923
:101F20009A4007EC9BFCE99AF90FD8E0E4C9FAE47F
:101F3000CCFB2275F010EF2FFFEE33FEED33FDCC1E
:101F400033CCC833C810D7079BEC9AE899400AED08
:101F50009BFDEC9AFCE899F80FD5F0DAE4CDFBE4B0
:101F6000CCFAE4C8F922EB9FF5F0EA9E42F0E99D35
:101F700042F0E89C45F022E8600FECC313FCED133F
:101F8000FDEE13FEEF13FFD8F122E86010ECA2E79C
:101F900013FCED13FDEE13FEEF13FFD8F022E86003
:101FA0000FEFC333FFEE33FEED33FDEC33FCD8F11E
:101FB00022E0FCA3E0FDA3E0FEA3E0FF22E493FC0B
:101FC000740193FD740293FE740393FF22E0F8A35F
:101FD000E0F9A3E0FAA3E0FB227401FF3395E0FEF1
:101FE000FDFCA3A3A3E02FFFF0E58215827002158C
:101FF00083E03EFEF0E582158270021583E03DFD30
:10200000F0E582158270021583E03CFCF022ECF0D2
:10201000A3EDF0A3EEF0A3EFF022A8828583F0D029
:1020200083D082122031122031122031122031E46B
:1020300073E493A3C583C5F0C583C8C582C8F0A364
:10204000C583C5F0C583C8C582C822A42582F58290
:10205000E5F03583F5832244009A0000000041003A
:1020600005004400E9000000004400FC00000000FE
:102070004300F50102036040004E00F720DF00F747
:10208000A05F00F7609F00F7E01F00F710EF00F778
:10209000906F00F750AF00F730CF00F728D700F768
:1020A000B04F00F7708F00FF50AF00FFF00F00FF40
:1020B000708F00F7887700FF28D7604000A900FFE5
:1020C000986700FFD82700FF887700FFA85700FF18
:1020D000E81700FF48B700FF689700FF02FD00FF08
:1020E00038C700FF32CD00FF20DF00F708F700F708
:1020F000689700F748B700FF788700F7A857604057
:10210000000600FF00000000FF00000000FF00FFCD
:10211000FFFF00FF80000022FF2200009966009967
:10212000330000FFFF000033AA88009900FF0099E8
:10213000660000FF33FF00FF00C00000FF33000017
:10214000FF11440001000000004400F800000000FE
:1021500044004600000000010900010E00010B00D0
:10216000020C000041014C0A5C013000FF0000003D
:1021700000FF00000000FF00FFFF000033AA8800FE
:102180009900FF00FFFFFF41012E0041012F004198
:10219000012C0041012D0041012B0042014D0000A6
:1021A000410129004A0100C0F9A4B0999282F88047
:1021B00090010F005C010A010203040506070305F4
:1021C00003050305030603050603050607050607C1
:1021D00005060741012AFF41015B004101630041FF
:1021E000016200410161004101600042015E0000A6
:1021F000420164000042015C271000787FE4F6D8B9
:10220000FD758125022242021800E493A3F8E493AD
:10221000A34003F68001F208DFF48029E493A3F8D9
:102220005407240CC8C333C4540F4420C88340044B
:10223000F456800146F6DFE4800B0102040810200A
:102240004080902057E47E019360BCA3FF543F3050
:10225000E509541FFEE493A360010ECF54C025E0AE
:1022600060A840B8E493A3FAE493A3F8E493A3C866
:10227000C582C8CAC583CAF0A3C8C582C8CAC583F7
:10228000CADFE9DEE780BE900175121FB17810EC5D
:102290004D4E4F70047CA57DA5C3EC13FCED13FDE2
:1022A000EE13FEEF13FF5010EC64CCFCED644CFD1C
:1022B000EE644EFEEF64CEFFD8DF90017512200E63
:1022C000EE547FFE22900175EEF0EFA3F0A374A50B
:1022D000F0A3F022C2D5E830E70FB2D5E4C39BFBF0
:1022E000E49AFAE499F9E498F8EC30E717B2D512D9
:1022F000230A121ED4E4C39BFBE49AFAE499F9E49E
:1023000098F88003121ED430D50DE4C39FFFE49EDD
:10231000FEE49DFDE49CFC2200FF00000000FF00A5
:04232000000000FFBA
:00000001FF
