:1024690075A15575A1AAE5B954F84406F5B9E4F57D
:02247900A1229E
:10002E00EF4E601505A105A105A105A105A105A12C
:0A003E0005A1EF1F70EA1E80E72203
:10241000CDEFCDCCEECCED4C600E7FE87E0312000C
:092420002EED1D70F11C80EE226E
:101DB000C29FD29EC29DC2CDC2CC43878090016A91
:101DC00012162A0000061AE47B0AFAF9F890016A52
:101DD0001215C11214E490016EEBF090016A121515
:101DE000C1E47B0AFAF9F81214E490016A12161E93
:101DF00090016EE0C39405401990016A1215C1EF7D
:101E00002401FFE43EFEE43DFDE43CFC90016A1247
:101E1000161EE589540F4420F58943C9A090016A34
:0E1E20001215C1EFF404F58DD28ED299D29C2A
:011E2E002291
:0A000E00C2C7D2C5D2C475C2642275
:1024290075A15575A1AAEF600543B101800353B1A8
:07243900FEE4F5A1F5FF220E
:030003008FFF224A
:0E248C0000FF00000000FF00000000FF000A3B
:101A140044009E0000000041000500420050000008
:101A2400420006000F4400ED0000000044010000E5
:101A34000000004300F90102036040005200F72057
:101A4400DF00F7A05F00F7609F00F7E01F00F710CA
:101A5400EF00F7906F00F750AF00F730CF00F72892
:101A6400D700F7B04F00F7708F00FF50AF00FFF0C2
:101A74000F00FF708F00F7887700FF28D7604000C1
:101A8400AD00FF986700FFD82700FF887700FFA804
:101A94005700FFE81700FF48B700FF689700FF02F0
:101AA400FD00FF38C700FF32CD00FF20DF00F7083C
:101AB400F700F7689700F748B700FF788700F7A8A2
:101AC400576040000800FF00000000FF0000000015
:101AD400FF00FFFFFF00FF80000022FF22000099AB
:101AE400660099330000FFFF000033AA88009900C4
:101AF400FF0099660000FF33FF00FF00C00000FFF5
:101B0400330000FF11440001000000004400FC0009
:0A1B1400000000440048000000003B
:100EF2001224697F1E7E00122410759618E4F59262
:100F020043973F7593FD1223B17F147E0012241084
:100F12007F01122429E4FF1200037F087E001222BF
:100F2200A57F087E0012225C1217DB12247B900040
:100F3200A7E02406780FF69000A5E07003740CF089
:100F42009000A5E0FF121E2FD2AF90004C12162A7D
:100F52000000FF00E49000A7F0900006A3E09001DB
:100F620057F090004C1215C1122133120006E4FF13
:100F720012000312100090004C1215C190009E1234
:100F820015DDC31215767014900006E0FEA3E0FF93
:100F9200900050E06E7003A3E06F60D2900006A351
:100FA200E0900157F090004C1215C11221339000CD
:100FB2004C1215C190009E12161E900006E0FFA36F
:0B0FC200E0900050CFF0A3EFF080A300
:10100000E4900153F07F01FE12241090000120B300
:10101000181215C1EF2401FFE43EFEE43DFDE43C5F
:10102000FC90000112161E800712162A0000000014
:101030009000FC20B4181215C1EF2401FFE43EFE1D
:10104000E43DFDE43CFC9000FC12161E80071216E5
:101050002A0000000090004820B0181215C1EF24AB
:1010600001FFE43EFEE43DFDE43CFC900048121626
:101070001E800712162A00000000E47F06FEFDFC19
:101080009000011215DDC31215764024E47F06FEA0
:10109000FDFC9000FC1215DDC31215765012E47FA2
:1010A00006FEFDFC9000481215DDC3121576407255
:1010B000E47F06FEFDFC9000FC1215DDC3121576E0
:1010C0004024E47F06FEFDFC9000011215DDC312F2
:1010D00015765012E47F06FEFDFC9000481215DDE7
:1010E000C3121576403CE47F06FEFDFC90004812DA
:1010F00015DDC31215765002612BE47F06FEFDFC60
:101100009000011215DDC31215764002612BE47FB9
:1011100006FEFDFC9000FC1215DDC31215764002A0
:10112000612B900005E070137823F69001001216F1
:101130002A000000009000057401F07823E6700298
:1011400041D6E4900154F0900154E0FFC394104064
:10115000024124EF25E025E02452F582E43400F535
:10116000831215C19001001215DDC312157660229D
:10117000900154E025E025E024ADF582E43400F54B
:10118000831215C19001001215DDC312157660029D
:10119000411C9001537401F0E47F06FEFDFC9000B9
:1011A000011215DDC31215764019900154E025E0B7
:1011B00025E02408F582E43400F5831215C190007F
:1011C000928054E47F06FEFDFC9000FC1215DDC306
:1011D0001215764019900154E025E025E02408F529
:1011E00082E43400F5831215C19000968029E47FD3
:1011F00006FEFDFC9000481215DDC3121576402452
:10120000900154E025E025E02408F582E43400F55F
:10121000831215C190009A12161E8008900154E0A6
:1012200004F02147900153E06023E4900005F09022
:10123000000112162A000000009000FC12162A007D
:1012400000000090004812162A000000007F6F7E08
:10125000907DFF7C009001001215DDC312157660B1
:10126000147FFF7E007DF77C009001001215DDC326
:101270001215767015C3900007E09414900006E0F4
:1012800094005044E475F001803B7F477EB87DFFB9
:101290007C009001001215DDC312157660147F7F6B
:1012A0007E807DF77C009001001215DDC31215765B
:1012B0007016D3900007E09400900006E094004080
:1012C0000774FFF5F0121467E47823F6900100121A
:1012D000162A00000000E47F06FEFDFC90000112CB
:1012E00015DDC31215764005900092802EE47F062E
:1012F000FEFDFC9000FC1215DDC312157640059032
:1013000000968017E47F06FEFDFC9000481215DD74
:10131000C3121576500261C090009A1215C1900058
:101320004C12161EE49000A7F061C0E4900005F096
:101330007823E6700261C07F6F7E907DFF7C009015
:1013400001001215DDC312157660147FFF7E007D4B
:10135000F77C009001001215DDC31215767015C3DD
:10136000900007E09414900006E094005044E47567
:10137000F001803B7F477EB87DFF7C00900100122A
:1013800015DDC312157660147F7F7E807DF77C00AB
:101390009001001215DDC31215767016D390000768
:1013A000E09400900006E09400400774FFF5F0120E
:1013B0001467E47823F690010012162A000000005A
:0913C000900153E060031220CCFF
:0113C9002201
:0D1B1E00010900010E00010B00020C000087
:1022A500900153EEF0A3EFF053C9EF5389F1438941
:1022B50001900153E0FEA3E0FBE4C39BFFE49EFE17
:1022C50074019400FDE49400FC780812159A9001BD
:1022D5006FEFF0E4C39BFF900171EFF090016FE0A9
:0722E500F58C8F8AD2A922BB
:10225C00900153EEF0A3EFF053C9DF53891F43896C
:10226C0010900153E0FEA3E0FBE4C39BFFE49EFE51
:10227C0074019400FDE49400FC780812159A900106
:10228C0070EFF0E4C39BFF900172EFF0900170E0EF
:09229C00F58D8F8BD2ABD28E229E
:1017DB00C2CDC2CCC2C953C9BF43C90843C904D285
:0E17EB00CBD2C8E4F5CCF5CD43C602D2AD2278
:03000B00022000D0
:10200000C0E0C083C082C0D0E8C0E0EFC0E0900173
:102010006FE0F58C900171E0F58A780906E6D394BB
:102020007F400276007809E6FF90012AE0D39F40C6
:1020300003D38001C3929790012BE0D39F4003D339
:102040008001C3929090012CE0D37809964003D38D
:102050008001C392B1900173E004F0D0E0FFD0E0C2
:0A206000F8D0D0D082D083D0E03257
:03001B00020FCD04
:100FCD00C0E0C083C082C0D075D018900170E0F52C
:100FDD008D900172E0F58B780E06E6C394054008FE
:100FED0078217601780E7600D0D0D082D083D0E0F3
:010FFD0032C1
:03002B00021D00B3
:101D0000C0E0C0F0C083C082C0D075D01030CE1605
:101D1000780BE67011C2CEC2CA53C9FB7601F5CC6E
:101D2000F5CDD2CA807AA2CEE433780B566071C268
:101D3000CE43C90C7600AFCB08E4F608EFF6790D78
:101D4000E7ADCA18F6ED08F618E6FA08E6FBC39404
:101D5000A0EA940F503A9001001215C178011215B3
:101D6000AE90010012161ED3EB94D0EA94074011F6
:101D70009001001215C1EF4401FFEC900100121612
:101D80001E780A06E6C39420401478237601800E5C
:101D900090010012162A00000000780A7600C2CADC
:101DA00030CF02C2CFD0D0D082D083D0F0D0E032BA
:101B2B004101500A5C013400FF00000000FF00007F
:101B3B000000FF00FFFF000033AA88009900FF00A0
:101B4B00FFFFFF41013200410133004101300041F1
:101B5B0001310041012F00420151000041012D00D4
:101B6B004A0104C0F9A4B0999282F88090010F0049
:101B7B005C010E01020304050607030503050305BB
:101B8B0003060305060305060705060705060741B9
:031B9B00012EFF19
:0A001E00E490012AF0A3F0A3F02201
:10237700EF25E0FF90012DE0FEEFD39E400CE490A7
:102387000173F090012DEFF0801A900150E0FD905D
:102397000173E0D39D400DE4F0EED39F400690011A
:0923A7002DE014F090012DE0FF7F
:0123B000220A
:1023E70090012EE06F6021C28EEFB4010543C9A0B2
:1023F700800FEFB4040843C92053C97F800353C932
:09240700DFD28E90012EEFF022CD
:101E2F00EFC394014077EFD394FE5071C28EC37409
:101E3F00FF9FFFE49400FE7C037DE81213CA90011C
:101E4F0053EEF0A3EFF0FBCAEECAE4C39BFFE49A94
:101E5F00FE74019400FDE49400FCE4FB7A01F9F8B0
:101E6F00122333900170EFF0900153E0FEA3E0FBDB
:101E7F00E4C39BFFE49EFE74019400FDE49400FC18
:101E8F00E4FB7A01F9F8122333CFEBCF900172EF15
:0D1E9F00F0900170E0F58D8F8BD2ABD28EEC
:011EAC002213
:052175009000A6E0FF50
:10217A00CBEFCB9000A4E08BF0A4FFAEF07C007D07
:10218A00141213DC90012AEFF09000A3E08BF0A464
:10219A00FFAEF07C007D141213DC90012BEFF0CF20
:1021AA00EBCF9000A2E08FF0A4FFAEF07C007D148C
:0921BA001213DC90012CEFF0225D
:102123009000A6E0900157F07D007F007E007C00C8
:1021330090015312161E9001531215C178101215F7
:10214300879000A4EFF09001531215C1780812157F
:10215300879000A3EFF09001531215C19000A2EFF6
:10216300F09000A7E070031220CC900157E0FF022B
:02217300217ACF
:101F28009000F51215C1C3747F9FFD900180E0FBFE
:021F3800E4FFC4
:101F3A00900183EFF070079000A4EDF080199001F2
:101F4A0083E0FFB401079000A3EDF0800AEF64027A
:101F5A00703B9000A2EDF0900167E07021CFEBCFCB
:101F6A00ED8FF0A4FFAEF07C007D141213DC90011B
:101F7A0083E0242AF582E43401F583EFF02290010C
:0E1F8A0083E0242AF582E43401F583EDF02291
:1022EC00EF30E003D38001C392B5EF30E103D3802C
:1022FC0001C39295EF30E203D38001C39296EF3085
:10230C00E303D38001C39294EF30E403D38001C381
:10231C0092B2EF30E503D38001C39293EF30E60322
:07232C00D38001C39292224D
:10244000EFD39409500F74042FF582E43401F5831F
:06245000E0FF1222EC2265
:03000600D28C2277
:0907F400C28CC297C290C2B1226E
:102210009000AA7402F09000ACEFF075F007A424CF
:1022200007F582E43401F583E09000A7F01220CC9A
:10223000E4900133F09000F512162A00000000909F
:1022400000F112162A000000009000A6E09001574D
:0C225000F07F007E007D007C0002213346
:101F9800E4900184F09000A8E0605420B31930B0B8
:101FA8001630B4137F287E0012241020B34130B0BD
:101FB8003E30B43B7F052230B31920B01630B4133D
:101FC8007F287E0012241030B32520B02230B41FA1
:101FD8007F022230B31930B01620B4137F287E0058
:101FE80012241030B30930B00620B4037F03227FD7
:011FF80000E8
:011FF90022C5
:0518000090017DEFF0F6
:10180500121F9890017EEFF024FE700221D0147013
:1018150002216E24FD7002213E0460024109780F09
:1018250006E6C394074063900167E06002E4F09028
:1018350000ACE0B406031200069000AAE0B402086A
:10184500A3E09000A7F080199000A7E004F0D394DE
:10185500074006E4780FF604F09000A7E09000AB8F
:10186500F09000AA7401F0E49000ACF0900133F020
:101875009000F512162A000000009000F112162AB9
:10188500000000001221231220CC780FE6C3940734
:10189500400241099000A7E0640A704C9001507421
:1018A50014F0E49000A7F09000ACE0B40603120039
:1018B50006900132E004F0D394064002E4F0900172
:1018C50032E025E025E02434F582E43401F5831285
:1018D50015C190017DE0900157F01221339001650B
:1018E500E0B401028044804AE49000A7F09000AC87
:1018F500E0B40603120006900132E004F0D394062A
:101905004002E4F0900132E025E025E02434F58240
:10191500E43401F5831215C19000A6E0900157F05B
:10192500122133900165E0B401089000AC7408F011
:1019350021CEE49000ACF021CE900165E070047FEB
:101945000180027F00900165EFF0BF01089000ACB7
:101955007408F08005E49000ACF09000A6E09001DA
:1019650057F07DFF12212D410690012FE004F0C3B1
:1019750094024002E4F090012FE06401701590019B
:1019850067E06002E4F09000AA7402F09000AC7485
:10199500068013900167E06002E4F09000AA7402EB
:1019A500F09000AC7407F09000A7740AF0E4900181
:1019B50033F09000F512162A000000009000F11295
:1019C500162A0000000012212380369000A7E0703F
:1019D500189000A6E004F0D394144002E4F09000BF
:1019E500A7E0701D12217580189000A5E02402F073
:1019F500E0D394FE40037401F09000A5E0FF121EB1
:0E1A05002F1220CC121F9890017EEFF070F689
:011A130022B0
:10004E0090017412161E7F677E987DFF7C009001D2
:10005E00741215DDC312157660147FDF7E207DF7D6
:10006E007C009001741215DDC31215767023E49096
:10007E0000A7F0900178E0900157F07F007E007DA0
:10008E00FF7C00122133900167E07002E167E4F01B
:10009E00227F777E887DFF7C009001741215DDC370
:1000AE0012157660147F9F7E607DF77C0090017440
:1000BE001215DDC31215767023E49000A7F090019F
:1000CE0078E0900157F07FFF7E007D007C001221CA
:1000DE0033900167E07002E167E4F0227F277ED85B
:1000EE007DFF7C009001741215DDC312157660142D
:1000FE007F5F7EA07DF77C009001741215DDC31228
:10010E0015767023E49000A7F0900178E0900157E7
:10011E00F07F007EFF7D007C00122133900167E0AE
:10012E007002E167E4F0227F577EA87DFF7C00908D
:10013E0001741215DDC312157660147F1F7EE07DEB
:10014E00F77C009001741215DDC31215767023E44E
:10015E009000A7F0900178E0900157F07FFF7EFFAE
:10016E007DFF7C00122133900167E07002E167E4AD
:10017E00F0227F177EE87DFF7C009001741215DD62
:10018E00C312157660147FEF7E107DF77C00900110
:10019E00741215DDC31215767023E49000A7F0904B
:1001AE000178E0900157F07F007E807DFF7C001289
:1001BE002133900167E07002E167E4F0227FC77E91
:1001CE00387DFF7C009001741215DDC31215766028
:1001DE00147FD77E287DF77C009001741215DDC345
:1001EE001215767023E49000A7F0900178E090014C
:1001FE0057F07F007EFF7DFF7C0012213390016758
:10020E00E07002E167E4F0227FCD7E327DFF7C005C
:10021E009001741215DDC312157660147F4F7EB0F7
:10022E007DF77C009001741215DDC31215767023D4
:10023E00E49000A7F0900178E0900157F07F887E5F
:10024E00AA7D337C00122133900167E07002E167D2
:10025E00E4F0227FDF7E207DFF7C0090017412157A
:10026E00DDC312157660147F8F7E707DF77C009053
:10027E0001741215DDC31215767023E49000A7F0F9
:10028E00900178E0900157F07FFF7E007D997C0011
:10029E00122133900167E07002E167E4F0227FB72C
:1002AE007E487DFF7C009001741215DDC312157619
:1002BE0060147F6F7E907DF77C009001741215DDC7
:1002CE00C31215767023E49000A7F0900178E090A9
:1002DE000157F07F227EFF7D227C00122133900198
:1002EE0067E07002E167E4F0227F977E687DFF7C15
:1002FE00009001741215DDC312157660147FAF7E67
:10030E00507DF77C009001741215DDC312157670C6
:10031E0023E49000A7F0900178E0900157F07F66FB
:10032E007E997D007C00122133900167E07002E11E
:10033E0067E4F0227FFD7E027DFF7C009001741247
:10034E0015DDC312157660147FCF7E307DF77C00ED
:10035E009001741215DDC31215767023E49000A778
:10036E00F0900178E0900157F07F007E337D997C0C
:10037E0000122133900167E07002E167E4F0227F02
:10038E00F77E087DF77C009001741215DDC31215FF
:10039E007660147FAF7E507DFF7C00900174121545
:1003AE00DDC31215767023E49000A7F0900178E07B
:1003BE00900157F07F007E667D997C00122133906C
:1003CE000167E07002E167E4F0227FB77E487DF7B7
:1003DE007C009001741215DDC312157660147F8FA8
:1003EE007E707DFF7C009001741215DDC3121576B0
:1003FE007023E49000A7F0900178E0900157F07F11
:10040E00C07E007DFF7C00122133900167E07002F8
:10041E00E167E4F0227F977E687DF77C009001749F
:10042E001215DDC312157660147F0F7EF07DFF7CF2
:10043E00009001741215DDC31215767023E490003E
:10044E00A7F0900178E0900157F07FFF7E337DFF9B
:10045E007C00122133900167E07002E167E4F02224
:10046E007F877E787DFF7C009001741215DDC312AC
:10047E00157660147F777E887DF77C00900174126C
:10048E0015DDC31215767023E49000A7F090017865
:10049E00E0900157F07F337EFF7D007C0012213308
:1004AE00900167E07002E167E4F0227F577EA87D3D
:1004BE00F77C009001741215DDC312157660147F5F
:1004CE00D77E287DFF7C009001741215DDC31215B6
:1004DE00767023E49000A7F0900178E0900157F039
:1004EE007F117EFF7D007C00122133900167E0704A
:1004FE0002E167E4F0227F4D7EB27DFF7C00900129
:10050E00741215DDC312157660147F2F7ED07DF721
:10051E007C009001741215DDC3121576704D90009B
:10052E00AAE0B40208A3E09000A7F080169000A7FE
:10053E00E004F0D3940740037401F09000A7E0901C
:10054E0000ABF09000AA7401F0E49000ACF09001C2
:10055E0033F09000F512162A000000009000F11200
:10056E00162A00000000900178E1617FFF7E007D79
:10057E00FF7C009001741215DDC312157660147F96
:10058E000F7EF07DF77C009001741215DDC31215FD
:10059E007670057F010222107F6F7E907DFF7C00BA
:1005AE009001741215DDC312157660147FFF7E0064
:1005BE007DF77C009001741215DDC3121576702E36
:1005CE009000A7E070159000A6E0C39414501DE0B3
:1005DE0004F0A3E0706C122175E1649000A5E0C3F5
:1005EE0094FE505EE004F0E0FF121E2FE1647F47A0
:1005FE007EB87DFF7C009001741215DDC312157656
:10060E0060147F7F7E807DF77C009001741215DD73
:10061E00C3121576702E9000A7E070159000A6E01C
:10062E00D39400401DE014F0A3E0701612217580E3
:10063E00119000A5E0D394014008E014F0E0FF1201
:10064E001E2FE1647F377EC87DF77C009001741207
:10065E0015DDC312157660147FA77E587DFF7C00D2
:10066E009001741215DDC3121576706B9000A7E021
:10067E00603BE4F0900178E0900157F07F007E003F
:10068E007DFF7C00122133900167E06002E4F09060
:10069E000165E0700204F0900165E0B4010890007D
:1006AE00AC7408F0802FE49000ACF08028900165C7
:1006BE00E004F0C394024002E4F0900165E0FFB460
:1006CE0001089000AC7408F08005E49000ACF0EFE7
:1006DE007003122175E1647F177EE87DF77C009030
:1006EE0001741215DDC312157660147FCF7E307D36
:1006FE00FF7C009001741215DDC3121576705A90AE
:10070E000131E004F0C394024002E4F0900131E0C4
:10071E00FF70069000AC7407F0EFB4010E90016705
:10072E00E06002E4F09000AC7406F09000AA74024F
:10073E00F09000A7740AF0E4900133F09000F512E7
:10074E00162A000000009000F112162A0000000088
:0A075E009000A61221261220CC22E2
:101EAD00EFC39405503DEF940040387824E664016B
:101EBD007068F6900133E0FEEF75F007A42407F586
:101ECD0082E43401F583E5822EF582E43583F583D2
:101EDD00E09000A7F0900133E004F0D39406403A6F
:101EED00E4F022EF640570327824E6B4012CE4F6B8
:101EFD00900132F0A3F09000F512162A00000000B8
:101F0D009000F112162A000000001221C37C007D02
:0B1F1D0007121431ED049000A7F02221
:10080000900180EDF090017FEFF06401600201B68D
:100810007F0C1223E79000F51215E9E47B02FAF948
:10082000F8C312157650289000F512162A00000021
:10083000009000F11215E9E47B07F8C31215765019
:100840000E9000F112162A0000000078247601E4D0
:10085000FFFEFDFC9000F51215DDC3121576701039
:10086000900180E0900157F07F007E007DFFC1EC99
:10087000E47F01FEFDFC9000F51215DDC312157634
:100880007010900180E0900157F07F007EFF7D00A6
:10089000C1ECE47F02FEFDFC9000F51215DDC312F1
:1008A00015766002C1F1900180E0900157F07FFF62
:1008B0007E007D00C1EC90017FE06402600221496E
:1008C0007F011223E79000F51215E9E47B7FFAF926
:1008D000F8C312157650359000F512162A00000064
:1008E000009000F11215E9E47B02F8C3121576506E
:1008F0001B9000F112162A00000000900132E00463
:10090000F0D394044006E4F078247601E4FFFEFD81
:10091000FC9000F11215DDC312157670028194E48B
:100920007F01FEFDFC9000F11215DDC312157670FB
:10093000028105E47F02FEFDFC9000F11215DDC38B
:100940001215766002C1F1A11790017FE064037077
:10095000417F0C1223E79000F11215E9E47B06FABF
:10096000F9F8C312157650289000F112162A0000EB
:1009700000009000F51215E9E47B0EF8C31215761D
:10098000500E9000F512162A00000000782476011F
:10099000C1B890017FE06404600241887F011223A6
:1009A000E79000F51215E9E47B7FFAF9F8C3121518
:1009B0007650289000F512162A000000009000F1F1
:1009C0001215E9E47B06F8C3121576500E9000F17B
:1009D00012162A0000000078247601E4FFFEFDFCD8
:1009E0009000F11215DDC312157670028105E47FC7
:1009F00001FEFDFC9000F11215DDC31215767002A8
:100A00008194E47F02FEFDFC9000F11215DDC3121B
:100A100015767002A117E47F03FEFDFC9000F11231
:100A200015DDC31215767002618CE47F04FEFDFCB7
:100A30009000F11215DDC3121576700261F0E47FAB
:100A400005FEFDFC9000F11215DDC3121576702233
:100A5000121F289000F51215DDC3747F9BFFE49AE6
:100A6000FEE499FDE498FCE47B02FAF9F81214E440
:100A700081DFE47F06FEFDFC9000F11215DDC3125C
:100A800015766002C1F181FF90017FE0640560028C
:100A9000A12C7F011223E79000F51215E9E47B7F7A
:100AA000FAF9F8C312157650289000F512162A00AC
:100AB0000000009000F11215E9E47B0DF8C3121557
:100AC00076500E9000F112162A000000007824766D
:100AD00001E4FFFEFDFC9000F11215DDC312157656
:100AE0007002A117E47F01FEFDFC9000F11215DDFC
:100AF000C312157670028194E47F02FEFDFC900023
:100B0000F11215DDC3121576700261D3E47F03FE86
:100B1000FDFC9000F11215DDC312157670028105FF
:100B2000E47F04FEFDFC9000F11215DDC312157682
:100B300070089000F51215C181DFE47F05FEFDFC11
:100B40009000F11215DDC312157670028146E47F24
:100B500006FEFDFC9000F11215DDC3121576701A29
:100B60009000F51215C1CDEFCD121F33E47B02FAD0
:100B7000F9F89000F51215C1802FE47F07FEFDFC07
:100B80009000F11215DDC31215767022121F289005
:100B900000F51215DDC3747F9BFFE49AFEE499FD16
:100BA000E498FCE47B02FAF9F81214E4802BE47F69
:100BB00008FEFDFC9000F11215DDC3121576701EC3
:100BC0009000F51215C1CDEFCD900180E0FB7F02C2
:100BD000121F3A9000F51215C1CDEFCD8032E47F9F
:100BE00009FEFDFC9000F11215DDC3121576702987
:100BF0009000F51215C1C3747F9FFD900180E0FB4A
:100C00007F02121F3A9000F51215C1C3747F9FFD39
:100C1000900180E0FB7F01A129E47F0AFEFDFC90AA
:100C200000F11215DDC3121576702D7B02FAF9F86A
:100C30009000F51215C11214E4CDEFCD900180E0C3
:100C4000FB7F02121F3A9000F51215C1CDEFCD9037
:100C50000180E0FBE4FFA129E47F0BFEFDFC900096
:100C6000F11215DDC3121576703E9000F51215DDF8
:100C7000C3747F9BFFE49AFEE499FDE498FCE47B57
:100C800002FAF9F81214E4CDEFCD900180E0FB7F79
:100C900002121F3A9000F51215C1C3747F9FFD9098
:100CA0000180E0FBE4FFA129E47F0CFEFDFC900045
:100CB000F11215DDC312157670319000F51215C1D1
:100CC000CDEFCD121F339000F51215C1CDEFCD90B1
:100CD0000180E0FB7F01121F3A9000F51215C1CD93
:100CE000EFCD900180E0FB7F02803EE47F0DFEFDB2
:100CF000FC9000F11215DDC31215766002C1F112ED
:100D00001F289000F51215C1C3747F9FFD900180CC
:100D1000E0FB7F01121F3A9000F51215C1C3747FEA
:100D20009FFD900180E0FB7F02021F3A90017FE06F
:100D300064066002C15C7F0C1223E79000F5121577
:100D4000E9E47B7FFAF9F8C312157650289000F594
:100D500012162A000000009000F11215E9E47B064B
:100D6000F8C3121576500E9000F112162A000000FA
:100D70000078247601E4FFFEFDFC9000F11215DD01
:100D8000C3121576701290012A747FF09000F5124C
:100D900015C190012BEF8023E47F01FEFDFC900044
:100DA000F11215DDC312157670169000F51215C1FB
:100DB000C3747F9F90012AF0A3747FF0E4A3F02214
:100DC000E47F02FEFDFC9000F11215DDC3121576E2
:100DD000701490012AF0A3747FF09000F51215C1F1
:100DE00090012CEFF022E47F03FEFDFC9000F11255
:100DF00015DDC3121576701390012AF09000F512DC
:100E000015C1C3747F9F90012B801FE47F04FEFDFA
:100E1000FC9000F11215DDC312157670139000F5E9
:100E20001215C190012AEFF0E4A3F0A3747FF02221
:100E3000E47F05FEFDFC9000F11215DDC31215766E
:100E40006002C1F190012A747FF0E4A3F09000F5F4
:100E50001215C1C3747F9F90012CF02290017FE096
:100E600064076002C1F17F0C1223E7900132E004B5
:100E7000F0D39401403BE4F09000F51215E9E47BD7
:100E800005FAF9F8C312157650279000F512162AC4
:100E9000000000009000F11215E9E40BF8C31215F0
:100EA00076500E9000F112162A0000000078247689
:100EB00001900132E0B401269000F11215C19001B9
:100EC0003475F004EF12165BEE25E025E02583F57E
:100ED000831215C1900180E0900157F080109001BD
:100EE00080E0900157F07F007E007D007C001221A1
:020EF0003322AB
:1020CC007E247F8C7B017A00799290015DE4F0A3F1
:1020DC007402F012206A7E247F907B017A0079963C
:1020EC0090015DE4F0A37402F012206A7E247F94C8
:1020FC007B017A00799A90015DE4F0A37402F012EE
:10210C00206A7E247F987B017A00790690015DE439
:07211C00F0A304F002206AA9
:1023B10090248C1215CD90009212161E902490122A
:1023C10015CD90009612161E9024941215CD9000F2
:1023D1009A12161E902498E493FF740193900006BC
:0623E100CFF0A3EFF02293
:08206A00900158EEF0A3EFF025
:1020720075A15575A1AA43B108E4F508D390015E94
:10208200E0950890015DE094004035900158E0FE33
:10209200A3E0FF8E858F8412147DFC12147DE5F07F
:1020A200FFECFEEF8E8FF58E75869A900158E475DF
:1020B200F002121467740229F9E43AFA050880BCA6
:0920C20075A15575A1AA53B1F3F3
:0120CB0022F2
:10247B00439A08439A01C281C280C285D2EBD284AF
:01248B00222E
:03004B0002245636
:10245600C0E0E8C0E0C285D2847825A69FD0E0F827
:03246600D0E03291
:101B9E0041015F004101670041016600410165009E
:101BAE0041016400420162000042016800004201EE
:031BBE006027108D
:10166700900181EFF0A3EDF0900162E475F00112B3
:101677001467FEC3E5F09488EE94134014E49001D8
:1016870062F0A3F0900182E094AA5005E49001640F
:10169700F0900182E0D394C84020900164E004F008
:1016A700940A4045E4F0900168F0A3F090015FE0F0
:1016B70004F094074033E4F0802F900168E475F05C
:1016C70001121467FEC3E5F094E8EE94034013E4B7
:1016D700900168F0A3F090015FE004F094074002E6
:1016E700E4F07F017E00122410900182E0FB90015C
:1016F70081F090015FE0B407004002E1D890170A3B
:1017070025E073E118E12BE134E149E16CE18FE178
:10171700B1900181E0FDE4FF121F3A900182E0FBE6
:10172700E4FD8033900182E0FBE4FD80419001827B
:10173700E0FBE4FDFF121F3A900181E0FDA3E0FB0F
:101747008015900181E0FDA3E0FBE4FF121F3A90B2
:101757000181E0FDA3E0FB7F02121F3A900182E0C6
:10176700FBE4FD8067900181E0FDA3E0FBE4FF124D
:101777001F3A900182E0FBE4FD7F02121F3A9001BD
:1017870081E0FDA3E0FB8044900182E0FBE4FDFFE4
:10179700121F3A900181E0FDA3E0FB7F02121F3A7E
:1017A700900181E0FDA3E0FB8022900181E0FDA391
:1017B700E0FBE4FF121F3A900181E0FDA3E0FB7F0D
:1017C70002121F3A900181E0FDA3E0FB7F01121F87
:0417D7003A7F002233
:101BC200900185EFF0900167E0700204F0EDC3949C
:101BD2003C4009900160E4F0A3740AF0EDD3943222
:101BE2005014900160E475F0321214679001607431
:101BF20003F0A374E8F0900168E475F00112146731
:101C0200FED3900161E095F0900160E09E5020E4E7
:101C1200900168F0A3F0900164E004F0C3947F4067
:101C22000EE4F090015FE004F094064002E4F090CC
:101C3200015FE014603714605714607614700281FB
:101C4200DA14604C2405600281FD900164E0FD7BA2
:101C520064E4FF121F3A900164E0FFC3747F9FFDAA
:101C62007B647F02121F3A7B64E4FD81F890016479
:101C7200E0FFC3747F9FFD7B64E4FF121F3A7B6425
:101C8200E4FD7F02121F3A900164E0FD7B648066EE
:101C92007B64E4FDFF121F3A900164E0FD7B647FE8
:101CA20002121F3A900164E0FFC3747F9FFD7B64C0
:101CB2008044900164E0FD7B64E4FF121F3A9001CE
:101CC20064E0FFC3747F9FFD7B647F02121F3A9022
:101CD2000164E0FD7B64801E900164E0FFC3747FB9
:101CE2009FFD7B64E4FF121F3A7B64E4FD7F0212D6
:0E1CF2001F3A7B647D7F7F01121F3A7F002224
:030000000207688C
:0C076800787FE4F6D8FD7581250207AF0C
:1013CA00EF8DF0A4A8F0CF8CF0A428CE8DF0A42E37
:0213DA00FE22F1
:1013DC00BC000BBE0029EF8DF084FFADF022E4CCF5
:1013EC00F875F008EF2FFFEE33FEEC33FCEE9DECBE
:1013FC00984005FCEE9DFE0FD5F0E9E4CEFD22ED04
:10140C00F8F5F0EE8420D21CFEADF075F008EF2F4D
:10141C00FFED33FD4007985006D5F0F222C398FD3E
:05142C000FD5F0EA22DB
:10143100C2D5EC30E709B2D5E4C39DFDE49CFCEED6
:1014410030E715B2D5E4C39FFFE49EFE1213DCC35F
:10145100E49DFDE49CFC80031213DC30D507C3E45A
:061461009FFFE49EFE2245
:10146700C5F0F8A3E028F0C5F0F8E5821582700210
:061477001583E038F022AD
:10147D00BB010A89828A83E0F5F0A3E0225006873A
:10148D00F009E71922BBFE07E3F5F009E3192289FC
:0B149D00828A83E493F5F0740193222F
:1014A80075F008758200EF2FFFEE33FECD33CDCCFB
:1014B80033CCC58233C5829BED9AEC99E58298407E
:1014C8000CF582EE9BFEED9AFDEC99FC0FD5F0D65B
:1014D800E4CEFBE4CDFAE4CCF9A88222B800C1B985
:1014E8000059BA002DEC8BF084CFCECDFCE5F0CBC3
:1014F800F97818EF2FFFEE33FEED33FDEC33FCEBFC
:1015080033FB10D703994004EB99FB0FD8E5E4F9B6
:10151800FA227818EF2FFFEE33FEED33FDEC33FCA3
:10152800C933C910D7059BE99A4007EC9BFCE99A97
:10153800F90FD8E0E4C9FAE4CCFB2275F010EF2FDC
:10154800FFEE33FEED33FDCC33CCC833C810D707DC
:101558009BEC9AE899400AED9BFDEC9AFCE899F817
:0E1568000FD5F0DAE4CDFBE4CCFAE4C8F922AA
:10233300C2D5E830E70FB2D5E4C39BFBE49AFAE4D5
:1023430099F9E498F8EC30E717B2D512236912141F
:10235300E4E4C39BFBE49AFAE499F9E498F8800374
:102363001214E430D50DE4C39FFFE49EFEE49DFD0B
:04237300E49CFC22C8
:10157600EB9FF5F0EA9E42F0E99D42F0E89C45F0CB
:011586002242
:10158700E8600FECC313FCED13FDEE13FEEF13FF42
:03159700D8F12266
:10159A00E86010ECA2E713FCED13FDEE13FEEF1367
:0415AA00FFD8F02254
:1015AE00E8600FEFC333FFEE33FEED33FDEC33FC9B
:0315BE00D8F1223F
:0C15C100E0FCA3E0FDA3E0FEA3E0FF229D
:1015CD00E493FC740193FD740293FE740393FF2264
:0C15DD00E0F8A3E0F9A3E0FAA3E0FB2291
:1015E9007401FF3395E0FEFDFCA3A3A3E02FFFF0F8
:1015F900E582158270021583E03EFEF0E5821582D0
:1016090070021583E03DFDF0E582158270021583B5
:05161900E03CFCF022A2
:0C161E00ECF0A3EDF0A3EEF0A3EFF0223F
:10162A00A8828583F0D083D0821216411216411205
:10163A001641121641E473E493A3C583C5F0C5832A
:10164A00C8C582C8F0A3C583C5F0C583C8C582C80A
:01165A00226D
:0C165B00A42582F582E5F03583F583229A
:1021C3009001791215C17810EC4D4E4F70047CA527
:1021D3007DA5C3EC13FCED13FDEE13FEEF13FF50CF
:1021E30010EC64CCFCED644CFDEE644EFEEF64CE6B
:1021F300FFD8DF90017912161EEE547FFE22900164
:0D22030079EEF0EFA3F0A374A5F0A3F02294
:10077400020EF2E493A3F8E493A34003F68001F29B
:1007840008DFF48029E493A3F85407240CC8C33386
:10079400C4540F4420C8834004F456800146F6DF55
:1007A400E4800B0102040810204080901A14E47EB7
:1007B400019360BCA3FF543F30E509541FFEE4934A
:1007C400A360010ECF54C025E060A840B8E493A311
:1007D400FAE493A3F8E493A3C8C582C8CAC583CA3C
:1007E400F0A3C8C582C8CAC583CADFE9DEE780BEF4
:011BC1000023
:00000001FF
