:10241B0075A15575A1AAE5B954F84406F5B9E4F5CB
:02242B00A122EC
:10002E00EF4E601505A105A105A105A105A105A12C
:0A003E0005A1EF1F70EA1E80E72203
:10239900CDEFCDCCEECCED4C600E7FE87E03120084
:0923A9002EED1D70F11C80EE22E6
:101D7500C29FD29EC29DC2CDC2CC43878090016ACC
:101D85001212380000061AE47B0AFAF9F890016A83
:101D95001211DF12110290016EEBF090016A12111F
:101DA500DFE47B0AFAF9F812110290016A12122C8B
:101DB50090016EE0C39405401990016A1211DFEF9E
:101DC5002401FFE43EFEE43DFDE43CFC90016A1283
:101DD500122CE589540F4420F58943C9A090016A66
:0E1DE5001211DFEFF404F58DD28ED299D29C4C
:011DF30022CD
:0A000E00C2C7D2C5D2C475C2642275
:1023B20075A15575A1AAEF600543B101800353B120
:0723C200FEE4F5A1F5FF2286
:030003008FFF224A
:10174C00440092000000004400060000000041002C
:10175C0005004400ED000000004401000000000002
:10176C004300F90102036040005200F720DF00F74C
:10177C00A05F00F7609F00F7E01F00F710EF00F785
:10178C00906F00F750AF00F730CF00F728D700F775
:10179C00B04F00F7708F00FF50AF00FFF00F00FF4D
:1017AC00708F00F7887700FF28D7604000AD00FFEE
:1017BC00986700FFD82700FF887700FFA85700FF25
:1017CC00E81700FF48B700FF689700FF02FD00FF15
:1017DC0038C700FF32CD00FF20DF00F708F700F715
:1017EC00689700F748B700FF788700F7A857604064
:1017FC00000A00FF00000000FF00000000FF00FFD7
:10180C00FFFF00FF80000022FF2200009966009974
:10181C00330000FFFF000033AA88009900FF0099F5
:10182C00660000FF33FF00FF00C00000FF33000024
:10183C00FF11440001000000004400FC0000000007
:07184C0044004A0000000007
:101BA90012241B7F1E7E00122399759618E4F59264
:101BB90043973F7593FD7F011223B2E4FF1200039F
:101BC90012001E1223F57F0A7E001223997F087ED8
:101BD900001222467F087E001221FD12237B122467
:101BE9002D90009BE02406780FF6900099E0700391
:101BF900740CF0900099E0FF121DF4900098E0B485
:101C0900FF21900097E0B4FF1A900096E0B4FF130B
:101C190090009AE0900157F07FFF7EFF7DFF7C00E6
:101C29001220D4900098E0FD90009AE0FBE4FF12A6
:101C39001EFF900097E0FD90009AE0FB7F01121EC5
:101C4900FF900096E0FD90009AE0FB7F02121EFFD4
:101C590090009AE0FF12211BD2AF90009CE0700522
:101C69001207F480031200069000A11211DF900000
:101C79004E12122CE490009BF0E4FF1200031212A2
:101C89007590004E1211DF9000921211EBC31211E0
:101C990094601B90004E1211DF900157740AF012E4
:101CA90020D490004E1211DF90009212122C782548
:0C1CB900E6FF122318900000EFF080BD41
:10127500E4900153F07F01FE12239990000120B301
:10128500181211DFEF2401FFE43EFEE43DFDE43CCE
:10129500FC90000112122C80071212380000000089
:1012A5009000FC20B4181211DFEF2401FFE43EFE8C
:1012B500E43DFDE43CFC9000FC12122C8007121268
:1012C500380000000090004A20B0181211DFEF240A
:1012D50001FFE43EFEE43DFDE43CFC90004A1212B1
:1012E5002C800712123800000000E47F06FEFDFC8A
:1012F5009000011211EBC31211944024E47F06FE05
:10130500FDFC9000FC1211EBC31211945012E47F06
:1013150006FEFDFC90004A1211EBC31211944072B7
:10132500E47F06FEFDFC9000FC1211EBC312119444
:101335004024E47F06FEFDFC9000011211EBC31270
:1013450011945012E47F06FEFDFC90004A1211EB49
:10135500C3121194403CE47F06FEFDFC90004A1246
:1013650011EBC31211945002A11DE47F06FEFDFC92
:101375009000011211EBC31211944002A11DE47FEC
:1013850006FEFDFC9000FC1211EBC3121194400205
:10139500A11D900005E070137823F690010012124C
:1013A50038000000009000057401F07823E6700213
:1013B50081CAE4900154F0900154E0FFC3941040B9
:1013C500028199EF25E025E02452F582E43400F509
:1013D500831211DF9001001211EBC31211946022E8
:1013E500900154E025E025E024ADF582E43400F5D4
:1013F500831211DF9001001211EBC31211946002E8
:1014050081919001537401F0E47F05FEFDFC90008D
:10141500011211EBC31211944019900154E025E01B
:1014250025E0240AF582E43400F5831211DF9000EB
:10143500A18054E47F05FEFDFC9000FC1211EBC376
:101445001211944019900154E025E025E0240AF595
:1014550082E43400F5831211DF9000A58029E47F32
:1014650005FEFDFC90004A1211EBC31211944024B5
:10147500900154E025E025E0240AF582E43400F5E6
:10148500831211DF9000A912122C8008900154E0FC
:1014950004F061BCE47823F69001001212380000D4
:1014A5000000E4900005F0900001121238000000E1
:1014B500009000FC1212380000000090004A121241
:1014C5003800000000E47F06FEFDFC9000011211CB
:1014D500EBC312119440059000A1802CE47F06FE19
:1014E500FDFC9000FC1211EBC31211944005900015
:1014F500A58015E47F06FEFDFC90004A1211EBC3A2
:1015050012119440249000A91211DF90004E12127E
:101515002CE490009BF080117823E6600CE4F690B3
:10152500010012123800000000900153E060031220
:0215350023DFB2
:011537002291
:0D185300010900010E00010B00020C000055
:10224600900153EEF0A3EFF053C9EF5389F14389A0
:1022560001900153E0FEA3E0FBE4C39BFFE49EFE76
:1022660074019400FDE49400FC78081211B8900102
:102276006FEFF0E4C39BFF900171EFF090016FE008
:07228600F58C8F8AD2A9221A
:1021FD00900153EEF0A3EFF053C9DF53891F4389CC
:10220D0010900153E0FEA3E0FBE4C39BFFE49EFEB0
:10221D0074019400FDE49400FC78081211B890014B
:10222D0070EFF0E4C39BFF900172EFF0900170E04E
:09223D00F58D8F8BD2ABD28E22FD
:10237B00C2CDC2CCC2C953C9BF43C90843C904D2D9
:0E238B00CBD2C8E4F5CCF5CD43C602D2AD22CC
:03000B00021F5D74
:101F5D00C0E0C083C082C0D0E8C0E0EFC0E0900117
:101F6D006FE0F58C900171E0F58A780906E6D3945F
:101F7D007F400276007809E6FF90012AE0D39F406A
:101F8D0003D38001C3929790012BE0D39F4003D3DD
:101F9D008001C3929090012CE0D37809964003D331
:101FAD008001C392B1900173E004F0D0E0FFD0E066
:0A1FBD00F8D0D0D082D083D0E032FB
:03001B00021FC7FA
:101FC700C0E0C083C082C0D075D018900170E0F522
:101FD7008D900172E0F58B780E06E6C394054008F4
:101FE70078217601780E7600D0D0D082D083D0E0E9
:011FF70032B7
:03002B00021CC5EF
:101CC500C0E0C0F0C083C082C0D075D01030CE1641
:101CD500780BE67011C2CEC2CA53C9FB7601F5CCAA
:101CE500F5CDD2CA807AA2CEE433780B566071C2A4
:101CF500CE43C90C7600AFCB08E4F608EFF6790DB4
:101D0500E7ADCA18F6ED08F618E6FA08E6FBC3943F
:101D1500A0EA940F503A9001001211DF78011211D8
:101D2500CC90010012122CD3EB94D0EA9407401109
:101D35009001001211DFEF4401FFEC900100121237
:101D45002C780A06E6C39420401478237601800E89
:101D550090010012123800000000780A7600C2CA0D
:101D650030CF02C2CFD0D0D082D083D0F0D0E032F5
:101860004101500A5C013400FF00000000FF00004D
:101870000000FF00FFFF000033AA88009900FF006E
:10188000FFFFFF41013200410133004101300041BF
:1018900001310041012F00420151000041012D00A2
:1018A0004A0104C0F9A4B0999282F88090010F0017
:1018B0005C010E0102030405060703050305030589
:1018C0000306030506030506070506070506074187
:0318D000012EFFE7
:0A001E00E490012AF0A3F0A3F02201
:10231800EF25E0FF90012DE0FEEFD39E400CE49006
:102328000173F090012DEFF0801A900150E0FD90BC
:102338000173E0D39D400DE4F0EED39F4006900179
:092348002DE014F090012DE0FFDE
:012351002269
:1023520090012EE06F6021C28EEFB4010543C9A047
:10236200800FEFB4040843C92053C97F800353C9C7
:09237200DFD28E90012EEFF02263
:101DF400EFC394014077EFD394FE5071C28EC37445
:101E0400FF9FFFE49400FE7C037DE8120FE890013D
:101E140053EEF0A3EFF0FBCAEECAE4C39BFFE49ACF
:101E2400FE74019400FDE49400FCE4FB7A01F9F8EB
:101E34001222D4900170EFF0900153E0FEA3E0FB76
:101E4400E4C39BFFE49EFE74019400FDE49400FC53
:101E5400E4FB7A01F9F81222D4CFEBCF900172EFB0
:0D1E6400F0900170E0F58D8F8BD2ABD28E27
:011E7100224E
:0521160090009AE0FFBB
:10211B00CBEFCB900098E08BF0A4FFAEF07C007D72
:10212B0014120FFA90012AEFF0900097E08BF0A4B5
:10213B00FFAEF07C007D14120FFA90012BEFF0CF65
:10214B00EBCF900096E08FF0A4FFAEF07C007D14F7
:09215B00120FFA90012CEFF022A2
:1020C40090009AE0900157F07D007F007E007C0034
:1020D40090015312122C9001531211DF7810121137
:1020E400A5900098EFF09001531211DF78081211B7
:1020F400A5900097EFF09001531211DF900096EF36
:10210400F090009BE070031223DF900157E0FF0280
:02211400211B8D
:101EED009000F51211DFC3747F9FFD900180E0FB20
:021EFD00E4FF00
:101EFF00900153EFF07007900098EDF0801990016A
:101F0F0053E0FFB40107900097EDF0800AEF6402F1
:101F1F00703B900096EDF0900167E07021CFEBCF12
:101F2F00ED8FF0A4FFAEF07C007D14120FFA90013C
:101F3F0053E0242AF582E43401F583EFF022900177
:0E1F4F0053E0242AF582E43401F583EDF022FC
:10228D00EF30E003D38001C392B5EF30E103D3808B
:10229D0001C39295EF30E203D38001C39296EF30E4
:1022AD00E303D38001C39294EF30E403D38001C3E1
:1022BD0092B2EF30E503D38001C39293EF30E60382
:0722CD00D38001C3929222AD
:1023C900EFD39409500F74042FF582E43401F58397
:0623D900E0FF12228D223C
:03000600D28C2277
:0907F400C28CC297C290C2B1226E
:1021B10090009E7402F09000A0EFF075F007A42447
:1021C10007F582E43401F583E090009BF01223DFF0
:1021D100E4900133F09000F51212380000000090F5
:1021E10000F11212380000000090009AE0900157AF
:0C21F100F07F007E007D007C000220D406
:10200000E4900185F090009CE0605420B31930B05A
:102010001630B4137F287E0012239920B34130B0CC
:102020003E30B43B7F052230B31920B01630B413D4
:102030007F287E0012239930B32520B02230B41FB0
:102040007F022230B31930B01620B4137F287E00EF
:1020500012239930B30930B00620B4037F03227FE6
:01206000007F
:01206100225C
:0515380090017DEFF0C1
:10153D0012200090017EEFF024FE7002E10814707D
:10154D0002C1A624FD7002C176046002E141780F4C
:10155D0006E6C394074063900167E06002E4F090F3
:10156D0000A0E0B4060312000690009EE0B402084D
:10157D00A3E090009BF0801990009BE004F0D394C1
:10158D00074006E4780FF604F090009BE090009F72
:10159D00F090009E7401F0E49000A0F0900133F003
:1015AD009000F5121238000000009000F112123870
:1015BD00000000001220C41223DF780FE6C3940749
:1015CD004002E14190009BE0640A704C9001507420
:1015DD0014F0E490009BF09000A0E0B4060312001C
:1015ED0006900132E004F0D394064002E4F090013D
:1015FD0032E025E025E02434F582E43401F5831250
:10160D0011DF90017DE0900157F01220D49001651B
:10161D00E0B401028044804AE490009BF09000A069
:10162D00E0B40603120006900132E004F0D39406F4
:10163D004002E4F0900132E025E025E02434F5820B
:10164D00E43401F5831211DF90009AE0900157F018
:10165D001220D4900165E0B401089000A07408F048
:10166D00E106E49000A0F0E106900165E070047FD2
:10167D000180027F00900165EFF0BF01089000A08E
:10168D007408F08005E49000A0F090009AE09001BD
:10169D0057F07DFF1220CEE13E90012FE004F0C304
:1016AD0094024002E4F090012FE064017015900166
:1016BD0067E06002E4F090009E7402F09000A07468
:1016CD00068013900167E06002E4F090009E7402C2
:1016DD00F09000A07407F090009B740AF0E4900164
:1016ED0033F09000F5121238000000009000F11256
:1016FD001238000000001220C4803690009BE0706C
:10170D001890009AE004F0D394144002E4F0900095
:10171D009BE0701D1221168018900099E02402F0B4
:10172D00E0D394FE40037401F0900099E0FF121D88
:0E173D00F41223DF12200090017EEFF070F610
:01174B00227B
:10004E0090017412122C7F677E987DFF7C009001C8
:10005E00741211EBC312119460147FDF7E207DF7B2
:10006E007C009001741211EBC31211947023E49072
:10007E00009BF0900178E0900157F07F007E007DAC
:10008E00FF7C001220D4900167E07002E167E4F07B
:10009E00227F777E887DFF7C009001741211EBC366
:1000AE0012119460147F9F7E607DF77C0090017426
:1000BE001211EBC31211947023E490009BF0900187
:1000CE0078E0900157F07FFF7E007D007C001220CB
:1000DE00D4900167E07002E167E4F0227F277ED8BA
:1000EE007DFF7C009001741211EBC3121194601409
:1000FE007F5F7EA07DF77C009001741211EBC3121E
:10010E0011947023E490009BF0900178E0900157D9
:10011E00F07F007EFF7D007C001220D4900167E00E
:10012E007002E167E4F0227F577EA87DFF7C00908D
:10013E0001741211EBC312119460147F1F7EE07DC7
:10014E00F77C009001741211EBC31211947023E42A
:10015E0090009BF0900178E0900157F07FFF7EFFBA
:10016E007DFF7C001220D4900167E07002E167E40D
:10017E00F0227F177EE87DFF7C009001741211EB58
:10018E00C312119460147FEF7E107DF77C009001F6
:10019E00741211EBC31211947023E490009BF09033
:1001AE000178E0900157F07F007E807DFF7C001289
:1001BE0020D4900167E07002E167E4F0227FC77EF1
:1001CE00387DFF7C009001741211EBC31211946004
:1001DE00147FD77E287DF77C009001741211EBC33B
:1001EE001211947023E490009BF0900178E090013E
:1001FE0057F07F007EFF7DFF7C001220D4900167B8
:10020E00E07002E167E4F0227FCD7E327DFF7C005C
:10021E009001741211EBC312119460147F4F7EB0D3
:10022E007DF77C009001741211EBC31211947023B0
:10023E00E490009BF0900178E0900157F07F887E6B
:10024E00AA7D337C001220D4900167E07002E16732
:10025E00E4F0227FDF7E207DFF7C0090017412117E
:10026E00EBC312119460147F8F7E707DF77C00902B
:10027E0001741211EBC31211947023E490009BF0E1
:10028E00900178E0900157F07FFF7E007D997C0011
:10029E001220D4900167E07002E167E4F0227FB78C
:1002AE007E487DFF7C009001741211EBC3121194F5
:1002BE0060147F6F7E907DF77C009001741211EBBD
:1002CE00C31211947023E490009BF0900178E0909B
:1002DE000157F07F227EFF7D227C001220D49001F8
:1002EE0067E07002E167E4F0227F977E687DFF7C15
:1002FE00009001741211EBC312119460147FAF7E43
:10030E00507DF77C009001741211EBC312119470A2
:10031E0023E490009BF0900178E0900157F07F6607
:10032E007E997D007C001220D4900167E07002E17E
:10033E0067E4F0227FFD7E027DFF7C009001741247
:10034E0011EBC312119460147FCF7E307DF77C00C9
:10035E009001741211EBC31211947023E490009B60
:10036E00F0900178E0900157F07F007E337D997C0C
:10037E00001220D4900167E07002E167E4F0227F62
:10038E00F77E087DF77C009001741211EBC31211F9
:10039E009460147FAF7E507DFF7C0090017412112B
:1003AE00EBC31211947023E490009BF0900178E05F
:1003BE00900157F07F007E667D997C001220D490CC
:1003CE000167E07002E167E4F0227FB77E487DF7B7
:1003DE007C009001741211EBC312119460147F8F84
:1003EE007E707DFF7C009001741211EBC31211948C
:1003FE007023E490009BF0900178E0900157F07F1D
:10040E00C07E007DFF7C001220D4900167E0700258
:10041E00E167E4F0227F977E687DF77C009001749F
:10042E001211EBC312119460147F0F7EF07DFF7CCE
:10043E00009001741211EBC31211947023E490001A
:10044E009BF0900178E0900157F07FFF7E337DFFA7
:10045E007C001220D4900167E07002E167E4F02284
:10046E007F877E787DFF7C009001741211EBC312A2
:10047E00119460147F777E887DF77C009001741252
:10048E0011EBC31211947023E490009BF09001784D
:10049E00E0900157F07F337EFF7D007C001220D468
:1004AE00900167E07002E167E4F0227F577EA87D3D
:1004BE00F77C009001741211EBC312119460147F3B
:1004CE00D77E287DFF7C009001741211EBC31211B0
:1004DE00947023E490009BF0900178E0900157F027
:1004EE007F117EFF7D007C001220D4900167E070AA
:1004FE0002E167E4F0227F4D7EB27DFF7C00900129
:10050E00741211EBC312119460147F2F7ED07DF7FD
:10051E007C009001741211EBC3121194704D900077
:10052E009EE0B40208A3E090009BF0801690009B22
:10053E00E004F0D3940740037401F090009BE09028
:10054E00009FF090009E7401F0E49000A0F09001E6
:10055E0033F09000F5121238000000009000F112F6
:10056E00123800000000900178E1617FFF7E007D6F
:10057E00FF7C009001741211EBC312119460147F72
:10058E000F7EF07DF77C009001741211EBC31211F7
:10059E009470057F010221B17F6F7E907DFF7C00FC
:1005AE009001741211EBC312119460147FFF7E0040
:1005BE007DF77C009001741211EBC3121194702E12
:1005CE0090009BE0701590009AE0C39414501DE0CB
:1005DE0004F0A3E0706C122116E164900099E0C360
:1005EE0094FE505EE004F0E0FF121DF4E1647F47DC
:1005FE007EB87DFF7C009001741211EBC312119432
:10060E0060147F7F7E807DF77C009001741211EB69
:10061E00C3121194702E90009BE0701590009AE01A
:10062E00D39400401DE014F0A3E070161221168042
:10063E0011900099E0D394014008E014F0E0FF120D
:10064E001DF4E1647F377EC87DF77C009001741243
:10065E0011EBC312119460147FA77E587DFF7C00AE
:10066E009001741211EBC3121194706B90009BE009
:10067E00603BE4F0900178E0900157F07F007E003F
:10068E007DFF7C001220D4900167E06002E4F090C0
:10069E000165E0700204F0900165E0B4010890007D
:1006AE00A07408F0802FE49000A0F08028900165DF
:1006BE00E004F0C394024002E4F0900165E0FFB460
:1006CE0001089000A07408F08005E49000A0F0EFFF
:1006DE007003122116E1647F177EE87DF77C00908F
:1006EE0001741211EBC312119460147FCF7E307D12
:1006FE00FF7C009001741211EBC3121194705A908A
:10070E000131E004F0C394024002E4F0900131E0C4
:10071E00FF70069000A07407F0EFB4010E90016711
:10072E00E06002E4F09000A07406F090009E740267
:10073E00F090009B740AF0E4900133F09000F512F3
:10074E001238000000009000F11212380000000074
:0A075E0090009A1220C71223DF2238
:101E7200EFC39405503DEF940040387824E66401A6
:101E82007068F6900133E0FEEF75F007A42407F5C1
:101E920082E43401F583E5822EF582E43583F5830D
:101EA200E090009BF0900133E004F0D39406403AB6
:101EB200E4F022EF640570327824E6B4012CE4F6F3
:101EC200900132F0A3F09000F512123800000000E9
:101ED2009000F1121238000000001221647C007D93
:0B1EE2000712104FED0490009BF0224F
:10080000900180EDF090017FEFF06401600201B68D
:100810007F0C1223529000F51211F7E47B02FAF9D3
:10082000F8C312119450289000F5121238000000FD
:10083000009000F11211F7E47B07F8C312119450F5
:100840000E9000F11212380000000078247601E4C6
:10085000FFFEFDFC9000F51211EBC3121194701015
:10086000900180E0900157F07F007E007DFFC1EC99
:10087000E47F01FEFDFC9000F51211EBC312119410
:100880007010900180E0900157F07F007EFF7D00A6
:10089000C1ECE47F02FEFDFC9000F51211EBC312E7
:1008A00011946002C1F1900180E0900157F07FFF48
:1008B0007E007D00C1EC90017FE06402600221496E
:1008C0007F011223529000F51211F7E47B7FFAF9B1
:1008D000F8C312119450359000F512123800000040
:1008E000009000F11211F7E47B02F8C3121194504A
:1008F0001B9000F112123800000000900132E00459
:10090000F0D394044006E4F078247601E4FFFEFD81
:10091000FC9000F11211EBC312119470028194E467
:100920007F01FEFDFC9000F11211EBC312119470D7
:10093000028105E47F02FEFDFC9000F11211EBC381
:100940001211946002C1F1A11790017FE06403705D
:10095000417F0C1223529000F11211F7E47B06FA4A
:10096000F9F8C312119450289000F11212380000C7
:1009700000009000F51211F7E47B0EF8C3121194F9
:10098000500E9000F5121238000000007824760115
:10099000C1B890017FE06404600241887F011223A6
:1009A000529000F51211F7E47B7FFAF9F8C31211A7
:1009B0009450289000F5121238000000009000F1C9
:1009C0001211F7E47B06F8C3121194500E9000F157
:1009D0001212380000000078247601E4FFFEFDFCCE
:1009E0009000F11211EBC312119470028105E47FA3
:1009F00001FEFDFC9000F11211EBC3121194700284
:100A00008194E47F02FEFDFC9000F11211EBC31211
:100A100011947002A117E47F03FEFDFC9000F11217
:100A200011EBC31211947002618CE47F04FEFDFC93
:100A30009000F11211EBC3121194700261F0E47F87
:100A400005FEFDFC9000F11211EBC312119470220F
:100A5000121EED9000F51211EBC3747F9BFFE49A18
:100A6000FEE499FDE498FCE47B02FAF9F812110225
:100A700081DFE47F06FEFDFC9000F11211EBC31252
:100A800011946002C1F181FF90017FE06405600272
:100A9000A12C7F011223529000F51211F7E47B7F05
:100AA000FAF9F8C312119450289000F51212380088
:100AB0000000009000F11211F7E47B0DF8C3121151
:100AC00094500E9000F11212380000000078247645
:100AD00001E4FFFEFDFC9000F11211EBC312119432
:100AE0007002A117E47F01FEFDFC9000F11211EBF2
:100AF000C312119470028194E47F02FEFDFC900009
:100B0000F11211EBC3121194700261D3E47F03FE62
:100B1000FDFC9000F11211EBC312119470028105DB
:100B2000E47F04FEFDFC9000F11211EBC31211945E
:100B300070089000F51211DF81DFE47F05FEFDFCF7
:100B40009000F11211EBC312119470028146E47F00
:100B500006FEFDFC9000F11211EBC3121194701A05
:100B60009000F51211DFCDEFCD121EF8E47B02FAF2
:100B7000F9F89000F51211DF802FE47F07FEFDFCED
:100B80009000F11211EBC31211947022121EED901D
:100B900000F51211EBC3747F9BFFE49AFEE499FD0C
:100BA000E498FCE47B02FAF9F8121102802BE47F4E
:100BB00008FEFDFC9000F11211EBC3121194701E9F
:100BC0009000F51211DFCDEFCD900180E0FB7F02A8
:100BD000121EFF9000F51211DFCDEFCD8032E47FC1
:100BE00009FEFDFC9000F11211EBC3121194702963
:100BF0009000F51211DFC3747F9FFD900180E0FB30
:100C00007F02121EFF9000F51211DFC3747F9FFD5B
:100C1000900180E0FB7F01A129E47F0AFEFDFC90AA
:100C200000F11211EBC3121194702D7B02FAF9F846
:100C30009000F51211DF121102CDEFCD900180E08E
:100C4000FB7F02121EFF9000F51211DFCDEFCD9059
:100C50000180E0FBE4FFA129E47F0BFEFDFC900096
:100C6000F11211EBC3121194703E9000F51211EBCA
:100C7000C3747F9BFFE49AFEE499FDE498FCE47B57
:100C800002FAF9F8121102CDEFCD900180E0FB7F5E
:100C900002121EFF9000F51211DFC3747F9FFD90BA
:100CA0000180E0FBE4FFA129E47F0CFEFDFC900045
:100CB000F11211EBC312119470319000F51211DF93
:100CC000CDEFCD121EF89000F51211DFCDEFCD90D3
:100CD0000180E0FB7F01121EFF9000F51211DFCDB5
:100CE000EFCD900180E0FB7F02803EE47F0DFEFDB2
:100CF000FC9000F11211EBC31211946002C1F112C9
:100D00001EED9000F51211DFC3747F9FFD900180EE
:100D1000E0FB7F01121EFF9000F51211DFC3747F0C
:100D20009FFD900180E0FB7F02021EFF90017FE0AB
:100D300064066002C15C7F0C1223529000F5121110
:100D4000F7E47B7FFAF9F8C312119450289000F56C
:100D5000121238000000009000F11211F7E47B0637
:100D6000F8C3121194500E9000F1121238000000D6
:100D70000078247601E4FFFEFDFC9000F11211EBF7
:100D8000C3121194701290012A747FF09000F51232
:100D900011DF90012BEF8023E47F01FEFDFC90002A
:100DA000F11211EBC312119470169000F51211DFBD
:100DB000C3747F9F90012AF0A3747FF0E4A3F02214
:100DC000E47F02FEFDFC9000F11211EBC3121194BE
:100DD000701490012AF0A3747FF09000F51211DFD7
:100DE00090012CEFF022E47F03FEFDFC9000F11255
:100DF00011EBC3121194701390012AF09000F512B8
:100E000011DFC3747F9F90012B801FE47F04FEFDE0
:100E1000FC9000F11211EBC312119470139000F5C5
:100E20001211DF90012AEFF0E4A3F0A3747FF02207
:100E3000E47F05FEFDFC9000F11211EBC31211944A
:100E40006002C1F190012A747FF0E4A3F09000F5F4
:100E50001211DFC3747F9F90012CF02290017FE07C
:100E600064076002C1F17F0C122352900132E0044A
:100E7000F0D39401403BE4F09000F51211F7E47BCD
:100E800005FAF9F8C312119450279000F5121238A0
:100E9000000000009000F11211F7E40BF8C31211EA
:100EA00094500E9000F11212380000000078247661
:100EB00001900132E0B401269000F11211DF90019F
:100EC0003475F004EF121269EE25E025E02583F574
:100ED000831211DF900180E0900157F080109001A3
:100EE00080E0900157F07F007E007D007C001220A2
:020EF000D4220A
:1023DF007B017A00799690015DE4F0A3740CF07F95
:0623EF00007E26022062C0
:1023F50078967C007D017BFF7A2679007E007F1729
:03240500020FC201
:08206200900158EEF0A3EFF02D
:10206A0075A15575A1AA43B108E4F508D390015E9C
:10207A00E0950890015DE094004035900158E0FE3B
:10208A00A3E0FF8E858F8412109BFC12109BE5F053
:10209A00FFECFEEF8E8FF58E75869A900158E475E7
:1020AA00F002121085740229F9E43AFA050880BC94
:0920BA0075A15575A1AA53B1F3FB
:0120C30022FA
:10242D00439A08439A01C281C280C285D2EBD284FD
:01243D00227C
:03004B0002240884
:10240800C0E0E8C0E0C285D2847825A69FD0E0F875
:03241800D0E032DF
:1018D30041015F004101670041016600410165006C
:1018E30041016400420162000042016800004201BC
:0318F3006027105B
:1018F700900183EFF0A3EDF0900162E475F001121F
:101907001085FEC3E5F09488EE94134014E490012B
:1019170062F0A3F0900184E094AA5005E49001647A
:10192700F0900184E0D394C84020900164E004F073
:10193700940A4045E4F0900168F0A3F090015FE05D
:1019470004F094074033E4F0802F900168E475F0C9
:1019570001121085FEC3E5F094E8EE94034013E40A
:10196700900168F0A3F090015FE004F09407400253
:10197700E4F07F017E00122399900184E0FB90013F
:1019870083F090015FE0B407004002416890199A24
:1019970025E07321A821BB21C421D921FC411F4186
:1019A70041900183E0FDE4FF121EFF900184E0FBFC
:1019B700E4FD8033900184E0FBE4FD8041900184E5
:1019C700E0FBE4FDFF121EFF900183E0FDA3E0FBB7
:1019D7008015900183E0FDA3E0FBE4FF121EFF905A
:1019E7000183E0FDA3E0FB7F02121EFF900184E06C
:1019F700FBE4FD8067900183E0FDA3E0FBE4FF12B9
:101A07001EFF900184E0FBE4FD7F02121EFF9001A0
:101A170083E0FDA3E0FB8044900184E0FBE4FDFF4D
:101A2700121EFF900183E0FDA3E0FB7F02121EFF61
:101A3700900183E0FDA3E0FB8022900183E0FDA3FA
:101A4700E0FBE4FF121EFF900183E0FDA3E0FB7FB4
:101A570002121EFF900183E0FDA3E0FB7F01121E2F
:041A6700FF7F0022DB
:101A6B00900186EFF0900167E0700204F0EDC394F3
:101A7B003C4009900160E4F0A3740AF0EDD394327A
:101A8B005014900160E475F032121085900160746F
:101A9B0003F0A374E8F0900168E475F0011210856F
:101AAB00FED3900161E095F0900160E09E5020E440
:101ABB00900168F0A3F0900164E004F0C3947F40C0
:101ACB000EE4F090015FE004F094064002E4F09025
:101ADB00015FE01460371460571460761470026174
:101AEB008314604C2405600261A6900164E0FD7BC9
:101AFB0064E4FF121EFF900164E0FFC3747F9FFD3F
:101B0B007B647F02121EFF7B64E4FD61A190016484
:101B1B00E0FFC3747F9FFD7B64E4FF121EFF7B64B9
:101B2B00E4FD7F02121EFF900164E0FD7B64806682
:101B3B007B64E4FDFF121EFF900164E0FD7B647F7C
:101B4B0002121EFF900164E0FFC3747F9FFD7B6454
:101B5B008044900164E0FD7B64E4FF121EFF900162
:101B6B0064E0FFC3747F9FFD7B647F02121EFF90B6
:101B7B000164E0FD7B64801E900164E0FFC3747F11
:101B8B009FFD7B64E4FF121EFF7B64E4FD7F02126A
:0E1B9B001EFF7B647D7F7F01121EFF7F0022F4
:030000000207688C
:0C076800787FE4F6D8FD7581250207AF0C
:100EF200E709F608DFFA8046E709F208DFFA803EE2
:100F020088828C83E709F0A3DFFA8032E309F608CE
:100F1200DFFA8078E309F208DFFA807088828C8336
:100F2200E309F0A3DFFA806489828A83E0A3F608EA
:100F3200DFFA805889828A83E0A3F208DFFA804CC4
:100F420080D280FA80C680D4806980F2803380109B
:100F520080A680EA809A80A880DA80E280CA803304
:100F620089828A83ECFAE493A3C8C582C8CCC5837C
:100F7200CCF0A3C8C582C8CCC583CCDFE9DEE7804C
:100F82000D89828A83E493A3F608DFF9ECFAA9F0CB
:100F9200EDFB2289828A83ECFAE0A3C8C582C8CC21
:100FA200C583CCF0A3C8C582C8CCC583CCDFEADE3A
:100FB200E880DB89828A83E493A3F208DFF980CC9C
:100FC20088F0EF60010E4E60C388F0ED2402B40495
:100FD2000050B9F582EB2402B4040050AF2323453C
:060FE2008223900F427310
:100FE800EF8DF0A4A8F0CF8CF0A428CE8DF0A42E1D
:020FF800FE22D7
:100FFA00BC000BBE0029EF8DF084FFADF022E4CCDB
:10100A00F875F008EF2FFFEE33FEEC33FCEE9DECA3
:10101A00984005FCEE9DFE0FD5F0E9E4CEFD22EDE9
:10102A00F8F5F0EE8420D21CFEADF075F008EF2F33
:10103A00FFED33FD4007985006D5F0F222C398FD24
:05104A000FD5F0EA22C1
:10104F00C2D5EC30E709B2D5E4C39DFDE49CFCEEBC
:10105F0030E715B2D5E4C39FFFE49EFE120FFAC32B
:10106F00E49DFDE49CFC8003120FFA30D507C3E426
:06107F009FFFE49EFE222B
:10108500C5F0F8A3E028F0C5F0F8E58215827002F6
:061095001583E038F02293
:10109B00BB010A89828A83E0F5F0A3E02250068720
:1010AB00F009E71922BBFE07E3F5F009E3192289E2
:0B10BB00828A83E493F5F07401932215
:1010C60075F008758200EF2FFFEE33FECD33CDCCE1
:1010D60033CCC58233C5829BED9AEC99E582984064
:1010E6000CF582EE9BFEED9AFDEC99FC0FD5F0D641
:1010F600E4CEFBE4CDFAE4CCF9A88222B800C1B96B
:101106000059BA002DEC8BF084CFCECDFCE5F0CBA8
:10111600F97818EF2FFFEE33FEED33FDEC33FCEBE1
:1011260033FB10D703994004EB99FB0FD8E5E4F99C
:10113600FA227818EF2FFFEE33FEED33FDEC33FC89
:10114600C933C910D7059BE99A4007EC9BFCE99A7D
:10115600F90FD8E0E4C9FAE4CCFB2275F010EF2FC2
:10116600FFEE33FEED33FDCC33CCC833C810D707C2
:101176009BEC9AE899400AED9BFDEC9AFCE899F8FD
:0E1186000FD5F0DAE4CDFBE4CCFAE4C8F92290
:1022D400C2D5E830E70FB2D5E4C39BFBE49AFAE435
:1022E40099F9E498F8EC30E717B2D512230A1211E1
:1022F40002E4C39BFBE49AFAE499F9E498F88003B6
:1023040012110230D50DE4C39FFFE49EFEE49DFD4F
:04231400E49CFC2227
:10119400EB9FF5F0EA9E42F0E99D42F0E89C45F0B1
:0111A4002228
:1011A500E8600FECC313FCED13FDEE13FEEF13FF28
:0311B500D8F1224C
:1011B800E86010ECA2E713FCED13FDEE13FEEF134D
:0411C800FFD8F0223A
:1011CC00E8600FEFC333FFEE33FEED33FDEC33FC81
:0311DC00D8F12225
:0C11DF00E0FCA3E0FDA3E0FEA3E0FF2283
:0C11EB00E0F8A3E0F9A3E0FAA3E0FB2287
:1011F7007401FF3395E0FEFDFCA3A3A3E02FFFF0EE
:10120700E582158270021583E03EFEF0E5821582C5
:1012170070021583E03DFDF0E582158270021583AB
:05122700E03CFCF02298
:0C122C00ECF0A3EDF0A3EEF0A3EFF02235
:10123800A8828583F0D083D08212124F12124F12E7
:10124800124F12124FE473E493A3C583C5F0C5830C
:10125800C8C582C8F0A3C583C5F0C583C8C582C800
:011268002263
:0C126900A42582F582E5F03583F5832290
:102164009001791211DF7810EC4D4E4F70047CA56C
:102174007DA5C3EC13FCED13FDEE13FEEF13FF502E
:1021840010EC64CCFCED644CFDEE644EFEEF64CECA
:10219400FFD8DF90017912122CEE547FFE229001B9
:0D21A40079EEF0EFA3F0A374A5F0A3F022F4
:10077400021BA9E493A3F8E493A34003F68001F2D7
:1007840008DFF48029E493A3F85407240CC8C33386
:10079400C4540F4420C8834004F456800146F6DF55
:1007A400E4800B010204081020408090174CE47E82
:1007B400019360BCA3FF543F30E509541FFEE4934A
:1007C400A360010ECF54C025E060A840B8E493A311
:1007D400FAE493A3F8E493A3C8C582C8CAC583CA3C
:1007E400F0A3C8C582C8CAC583CADFE9DEE780BEF4
:0118F60000F1
:00000001FF
