:1023960075A15575A1AAE5B954F84406F5B9E4F551
:0223A600A12272
:10002E00EF4E601505A105A105A105A105A105A12C
:0A003E0005A1EF1F70EA1E80E72203
:10233D00CDEFCDCCEECCED4C600E7FE87E031200E0
:09234D002EED1D70F11C80EE2242
:101D0F00C29FD29EC29DC2CDC2CC43878090016636
:101D1F0012152A0000061AE47B0AFAF9F8900166F8
:101D2F001214C11213E490016AEBF09001661214C1
:101D3F00C1E47B0AFAF9F81213E490016612151E3A
:101D4F0090016AE0C3940540199001661214C1EF27
:101D5F002401FFE43EFEE43DFDE43CFC90016612ED
:101D6F00151EE589540F4420F58943C9A0900166DB
:0E1D7F001214C1EFF404F58DD28ED299D29CCD
:011D8D002233
:0A001E00C2C7D2C5D2C475C2642265
:1023560075A15575A1AAEF600543B101800353B17C
:07236600FEE4F5A1F5FF22E2
:030003008FFF224A
:0C000E0000FF00000000FF00000000FFE9
:10177B0041004E0044009F00000000410005004264
:10178B00004F000042009500004400EE00000000F6
:10179B00440101000000004300FA01020360400015
:1017AB005100F720DF00F7A05F00F7609F00F7E024
:1017BB001F00F710EF00F7906F00F750AF00F730F6
:1017CB00CF00F728D700F7B04F00F7708F00FF500E
:1017DB00AF00FFF00F00FF708F00F7887700FF2836
:1017EB00D7604000AE00FF986700FFD82700FF8846
:1017FB007700FFA85700FFE81700FF48B700FF6806
:10180B009700FF02FD00FF38C700FF32CD00FF201D
:10181B00DF00F708F700F7689700F748B700FF7885
:10182B008700F7A8576040000600FF00000000FF8C
:10183B0000000000FF00FFFFFF00FF80000022FF01
:10184B0022000099660099330000FFFF000033AAC5
:10185B0088009900FF0099660000FF33FF00FF002E
:10186B00C00000FF330000FF114400010000000026
:0E187B004400FD000000004400460000000094
:101BDF001223967F1E7E0012233D759618E4F59210
:101BEF0043973F7593FD1222FB7F147E0012233D16
:101BFF001223A87F087E0012218D12231F9000A6AA
:101C0F00E07003740CF09000A6E0FF121D8ED2AFAF
:101C1F007F027E0012233D90004A12152A0000FF1A
:101C2F000090004A1214C190009F12151E7825E6ED
:101C3F0075F014A4FFAEF07C007DFF1212DC900053
:101C4F0095EEF0FAA3EFF0FB90004FEAF0A3EBF064
:101C5F00E49000A8F090004A1214C1900163EBF0D9
:101C6F001221541200067F01122356E4FF120003C3
:101C7F00E4FF12000312100090004EEFF07825E6FB
:101C8F0075F014A4FFAEF07C007DFF1212DC900003
:101C9F0095EEF0A3EFF090004FE06E7003A3E06FAE
:101CAF006018900095A3E0FF120FA7900095E0FF3A
:101CBF00A3E090004FCFF0A3EFF090004A1214C1B1
:101CCF0090009F1214DDC3121476601E90004A120A
:101CDF0014C1900095A3E0900163F012215490007D
:101CEF004A1214C190009F12151E90004EE064011D
:101CFF006002817F12225F7F017E0012233D817F70
:10100000E490015FF07F01FE12233D90000120B3C8
:10101000181214C1EF2401FFE43EFEE43DFDE43C60
:10102000FC90000112151E800712152A0000000016
:101030009000FD20B4181214C1EF2401FFE43EFE1D
:10104000E43DFDE43CFC9000FD12151E80071215E6
:101050002A0000000090004620B0181214C1EF24AE
:1010600001FFE43EFEE43DFDE43CFC900046121529
:101070001E800712152A00000000E47F06FEFDFC1A
:101080009000011214DDC31214764024E47F06FEA2
:10109000FDFC9000FD1214DDC31214765012E47FA3
:1010A00006FEFDFC9000461214DDC3121476407259
:1010B000E47F06FEFDFC9000FD1214DDC3121476E1
:1010C0004024E47F06FEFDFC9000011214DDC312F3
:1010D00014765012E47F06FEFDFC9000461214DDEB
:1010E000C3121476403CE47F06FEFDFC90004612DD
:1010F00014DDC3121476500241AEE47F06FEFDFCFF
:101100009000011214DDC3121476400241AEE47F58
:1011100006FEFDFC9000FD1214DDC31214764002A1
:1011200041AE900005E070137823F690010112158E
:101130002A000000009000057401F07823E6700298
:10114000415BE4900160F0900160E0FFC3941040C7
:10115000024124EF25E025E02451F582E43400F536
:10116000831214C19001011214DDC312147660229F
:10117000900160E025E025E024AEF582E43400F53E
:10118000831214C19001011214DDC312147660029F
:10119000411C90015F7401F0E47F06FEFDFC9000AD
:1011A000011214DDC31214764019900160E025E0AD
:1011B00025E02406F582E43400F5831214C1900082
:1011C000918054E47F06FEFDFC9000FD1214DDC307
:1011D0001214764019900160E025E025E02406F520
:1011E00082E43400F5831214C19000978029E47FD3
:1011F00006FEFDFC9000461214DDC3121476402456
:10120000900160E025E025E02406F582E43400F555
:10121000831214C190009B12151E8008900160E09B
:1012200004F0214790015FE06023E4900005F09016
:10123000000112152A000000009000FD12152A007E
:1012400000000090004612152A00000000E47823F8
:10125000F690010112152A00000000E47F06FEFD51
:10126000FC9000011214DDC3121476400590009129
:10127000802CE47F06FEFDFC9000FD1214DDC312FD
:10128000147640059000978015E47F06FEFDFC90E3
:1012900000461214DDC3121476402990009B1214EC
:1012A000C190004A12151EE49000A8F08016E49048
:1012B0000005F07823E6600CE4F690010112152A8F
:0912C0000000000090015FE0FF56
:0112C9002202
:0D188900010900010E00010B00020C00001F
:10218D0090015FEEF0A3EFF053C9EF5389F143894E
:10219D000190015FE0FEA3E0FBE4C39BFFE49EFE24
:1021AD0074019400FDE49400FC780812149A9001D7
:1021BD006BEFF0E4C39BFF90016DEFF090016BE0CE
:0721CD00F58C8F8AD2A922D4
:1020FB00900179EEF0A3EFF053C9DF53891F4389A9
:10210B0010900179E0FEA3E0FBE4C39BFFE49EFE8D
:10211B0074019400FDE49400FC780812149A900169
:10212B006CEFF0E4C39BFF90016EEFF090016CE05D
:09213B00F58D8F8BD2ABD28E2200
:10231F00C2CDC2CCC2C953C9BF43C90843C904D235
:0E232F00CBD2C8E4F5CCF5CD43C602D2AD2228
:03000B00021EF7DB
:101EF700C0E0C083C082C0D0E8C0E0EFC0E090017E
:101F07006BE0F58C90016DE0F58A780906E6D394CD
:101F17007F400276007809E6FF90012BE0D39F40CF
:101F270003D38001C3929790012CE0D39F4003D342
:101F37008001C3929090012DE0D37809964003D396
:101F47008001C392B190016FE004F0D0E0FFD0E0D0
:0A1F5700F8D0D0D082D083D0E03261
:03001B000222A11D
:1022A100C0E0C083C082C0D075D01890016CE0F549
:1022B1008D90016EE0F58B780E06E6C3940540081B
:1022C10078217601780E7600D0D0D082D083D0E00C
:0122D10032DA
:03002B00020EF2D0
:100EF200C0E0C0F0C083C082C0D075D01030CE1622
:100F0200780BE67011C2CEC2CA53C9FB7601F5CC8A
:100F1200F5CDD2CA807AA2CEE433780B566071C284
:100F2200CE43C90C7600AFCB08E4F608EFF6790D94
:100F3200E7ADCA18F6ED08F618E6FA08E6FBC39420
:100F4200A0EA940F503A9001011214C178011214D0
:100F5200AE90010112151ED3EB94D0EA9407401112
:100F62009001011214C1EF4401FFEC90010112152E
:100F72001E780A06E6C39420401478237601800E78
:100F820090010112152A00000000780A7600C2CAF8
:100F920030CF02C2CFD0D0D082D083D0F0D0E032D6
:101896004101510A5C013500FF00000000FF000015
:1018A6000000FF00FFFF000033AA88009900FF0038
:1018B600FFFFFF4101330041013400410131004186
:1018C60001320041013000420152000041012E0068
:1018D6004A0105C0F9A4B0999282F88090010F00E0
:1018E6005C010F0102030405060703050305030552
:1018F6000306030506030506070506070506074151
:03190600012FFFAF
:0A07F400E490012BF0A3F0A3F02223
:101FC300EF25E0FF90012EE0FEEFD39E400CE4905E
:101FD300016FF090012EEFF0801A900151E0FD9017
:101FE300016FE0D39D400DE4F0EED39F40069001D6
:091FF3002EE014F090012EE0FF35
:011FFC0022C2
:1022D20090012FE06F6021C28EEFB4010543C9A0C7
:1022E200800FEFB4040843C92053C97F800353C948
:0922F200DFD28E90012FEFF022E3
:101D8E00EFC394014077EFD394FE5071C28EC374AB
:101D9E00FF9FFFE49400FE7C037DE81212CA9001BF
:101DAE005FEEF0A3EFF0FBCAEECAE4C39BFFE49A2A
:101DBE00FE74019400FDE49400FCE4FB7A01F9F852
:101DCE0012221B90016CEFF090015FE0FEA3E0FB8E
:101DDE00E4C39BFFE49EFE74019400FDE49400FCBA
:101DEE00E4FB7A01F9F812221BCFEBCF90016EEFD4
:0D1DFE00F090016CE0F58D8F8BD2ABD28E92
:011E0B0022B4
:050FA2009000A7E0FF34
:100FA700CBEFCB9000A5E08BF0A4FFAEF07C007DEB
:100FB700141212DC90012BEFF09000A4E08BF0A448
:100FC700FFAEF07C007D141212DC90012CEFF0CF05
:100FD700EBCF9000A3E08FF0A4FFAEF07C007D1470
:090FE7001212DC90012DEFF02242
:102144009000A7E0900163F07D007F007E007C009A
:1021540090015F12151E90015F1214C178101214C1
:10216400879000A5EFF090015F1214C17808121453
:10217400879000A4EFF090015F1214C19000A3EFC8
:09218400F0900163E0FF020FA7D7
:101E87009000F61214C1C3747F9FFD90017EE0FBA2
:021E9700E4FF66
:101E9900900181EFF070079000A5EDF08019900195
:101EA90081E0FFB401079000A4EDF0800AEF64021D
:101EB900703B9000A3EDF090015CE07021CFEBCF77
:101EC900ED8FF0A4FFAEF07C007D141212DC9001BE
:101ED90081E0242BF582E43401F583EFF0229001AF
:0E1EE90081E0242BF582E43401F583EDF02234
:1021D400EF30E003D38001C392B5EF30E103D38045
:1021E40001C39295EF30E203D38001C39296EF309E
:1021F400E303D38001C39294EF30E403D38001C39B
:1022040092B2EF30E503D38001C39293EF30E6033B
:07221400D38001C392922266
:10236D00EFD39409500F74052FF582E43401F583F2
:06237D00E0FF1221D42252
:03000600D28C2277
:090FF000C28CC297C290C2B1226A
:1020AF009000AB7402F09000ADEFF075F007A42430
:1020BF0008F582E43401F583E09000A8F012225F66
:1020CF00E4900134F09000F612152A000000009001
:1020DF0000F212152A000000009000A7E0900163A3
:0C20EF00F07F007E007D007C0002215488
:101F6100E4900182F09000A9E0605420B31930B0F0
:101F71001630B4137F287E0012233D20B34130B0C8
:101F81003E30B43B7F052230B31920B01630B41374
:101F91007F287E0012233D30B32520B02230B41FAC
:101FA1007F022230B31930B01620B4137F287E008F
:101FB10012233D30B30930B00620B4037F03227FE2
:011FC100001F
:011FC20022FC
:0515670090017BEFF094
:10156C00121F6190017CEFF024FE7002E1371470C1
:10157C0002C1D524FD7002C1A5046002E170780F90
:10158C0006E6C39407406390015CE06002E4F090CF
:10159C0000ADE0B406031200069000ABE0B4020804
:1015AC00A3E09000A8F080199000A8E004F0D39478
:1015BC00074006E4780FF604F09000A8E09000AC29
:1015CC00F09000AB7401F0E49000ADF0900134F0B9
:1015DC009000F612152A000000009000F212152A55
:1015EC000000000012214412225F780FE6C394071A
:1015FC004002E1709000A8E0640A704C90015174B4
:10160C0014F0E49000A8F09000ADE0B406031200D2
:10161C0006900133E004F0D394064002E4F090010C
:10162C0033E025E025E02435F582E43401F583121E
:10163C0014C190017BE0900163F012215490015A87
:10164C00E0B401028044804AE49000A8F09000AD20
:10165C00E0B40603120006900133E004F0D39406C4
:10166C004002E4F0900133E025E025E02435F582DA
:10167C00E43401F5831214C19000A7E0900163F0EB
:10168C0012215490015AE0B401089000AD7408F096
:10169C00E135E49000ADF0E13590015AE070047F43
:1016AC000180027F0090015AEFF0BF01089000AD5D
:1016BC007408F08005E49000ADF09000A7E0900174
:1016CC0063F07DFF12214EE16D900130E004F0C318
:1016DC0094024002E4F0900130E064017015900136
:1016EC005CE06002E4F09000AB7402F09000AD742A
:1016FC0006801390015CE06002E4F09000AB740291
:10170C00F09000AD7407F09000A8740AF0E490011A
:10171C0034F09000F612152A000000009000F2122E
:10172C00152A0000000012214480369000A8E070B9
:10173C00189000A7E004F0D394144002E4F0900059
:10174C00A8E0701D120FA280189000A6E02402F0F1
:10175C00E0D394FE40037401F09000A6E0FF121D4C
:0E176C008E12225F121F6190017CEFF070F66A
:01177A00224C
:10004E0090017012151E7F677E987DFF7C009001D7
:10005E00701214DDC312147660147FDF7E207DF7DC
:10006E007C009001701214DDC31214767023E4909C
:10007E0000A8F0900174E0900163F07F007E007D97
:10008E00FF7C0012215490015CE07002E167E4F005
:10009E00227F777E887DFF7C009001701214DDC375
:1000AE0012147660147F9F7E607DF77C0090017045
:1000BE001214DDC31214767023E49000A8F09001A0
:1000CE0074E0900163F07FFF7E007D007C001221C2
:1000DE005490015CE07002E167E4F0227F277ED845
:1000EE007DFF7C009001701214DDC3121476601433
:1000FE007F5F7EA07DF77C009001701214DDC3122D
:10010E0014767023E49000A8F0900174E0900163DF
:10011E00F07F007EFF7D007C0012215490015CE098
:10012E007002E167E4F0227F577EA87DFF7C00908D
:10013E0001701214DDC312147660147F1F7EE07DF1
:10014E00F77C009001701214DDC31214767023E454
:10015E009000A8F0900174E0900163F07FFF7EFFA5
:10016E007DFF7C0012215490015CE07002E167E497
:10017E00F0227F177EE87DFF7C009001701214DD67
:10018E00C312147660147FEF7E107DF77C00900111
:10019E00701214DDC31214767023E49000A8F09050
:1001AE000174E0900163F07F007E807DFF7C001281
:1001BE00215490015CE07002E167E4F0227FC77E7B
:1001CE00387DFF7C009001701214DDC3121476602E
:1001DE00147FD77E287DF77C009001701214DDC34A
:1001EE001214767023E49000A8F0900174E0900150
:1001FE0063F07F007EFF7DFF7C0012215490015C36
:10020E00E07002E167E4F0227FCD7E327DFF7C005C
:10021E009001701214DDC312147660147F4F7EB0FD
:10022E007DF77C009001701214DDC31214767023DA
:10023E00E49000A8F0900174E0900163F07F887E56
:10024E00AA7D337C0012215490015CE07002E167BC
:10025E00E4F0227FDF7E207DFF7C0090017012147F
:10026E00DDC312147660147F8F7E707DF77C009054
:10027E0001701214DDC31214767023E49000A8F0FE
:10028E00900174E0900163F07FFF7E007D997C0009
:10029E0012215490015CE07002E167E4F0227FB716
:1002AE007E487DFF7C009001701214DDC31214761F
:1002BE0060147F6F7E907DF77C009001701214DDCC
:1002CE00C31214767023E49000A8F0900174E090AD
:1002DE000163F07F227EFF7D227C0012215490016B
:1002EE005CE07002E167E4F0227F977E687DFF7C20
:1002FE00009001701214DDC312147660147FAF7E6D
:10030E00507DF77C009001701214DDC312147670CC
:10031E0023E49000A8F0900174E0900163F07F66F2
:10032E007E997D007C0012215490015CE07002E108
:10033E0067E4F0227FFD7E027DFF7C00900170124B
:10034E0014DDC312147660147FCF7E307DF77C00EF
:10035E009001701214DDC31214767023E49000A87D
:10036E00F0900174E0900163F07F007E337D997C04
:10037E000012215490015CE07002E167E4F0227FEC
:10038E00F77E087DF77C009001701214DDC3121405
:10039E007660147FAF7E507DFF7C0090017012144A
:1003AE00DDC31214767023E49000A8F0900174E07F
:1003BE00900163F07F007E667D997C00122154903F
:1003CE00015CE07002E167E4F0227FB77E487DF7C2
:1003DE007C009001701214DDC312147660147F8FAE
:1003EE007E707DFF7C009001701214DDC3121476B6
:1003FE007023E49000A8F0900174E0900163F07F08
:10040E00C07E007DFF7C0012215490015CE07002E2
:10041E00E167E4F0227F977E687DF77C00900170A3
:10042E001214DDC312147660147F0F7EF07DFF7CF4
:10043E00009001701214DDC31214767023E4900044
:10044E00A8F0900174E0900163F07FFF7E337DFF92
:10045E007C0012215490015CE07002E167E4F0220E
:10046E007F877E787DFF7C009001701214DDC312B1
:10047E00147660147F777E887DF77C009001701271
:10048E0014DDC31214767023E49000A8F09001746A
:10049E00E0900163F07F337EFF7D007C00122154DB
:1004AE0090015CE07002E167E4F0227F577EA87D48
:1004BE00F77C009001701214DDC312147660147F65
:1004CE00D77E287DFF7C009001701214DDC31214BC
:1004DE00767023E49000A8F0900174E0900163F030
:1004EE007F117EFF7D007C0012215490015CE07034
:1004FE0002E167E4F0227F4D7EB27DFF7C00900129
:10050E00701214DDC312147660147F2F7ED07DF727
:10051E007C009001701214DDC3121476704D9000A1
:10052E00ABE0B40208A3E09000A8F080169000A8FB
:10053E00E004F0D3940740037401F09000A8E0901B
:10054E0000ACF09000AB7401F0E49000ADF09001BF
:10055E0034F09000F612152A000000009000F212FE
:10056E00152A00000000900174E1617FFF7E007D7E
:10057E00FF7C009001701214DDC312147660147F9C
:10058E000F7EF07DF77C009001701214DDC3121403
:10059E007670057F010220AF7F6F7E907DFF7C001D
:1005AE009001701214DDC312147660147FFF7E006A
:1005BE007DF77C009001701214DDC3121476702E3C
:1005CE009000A8E070159000A7E0C39414501DE0B1
:1005DE0004F0A3E0706C120FA2E1649000A6E0C3D9
:1005EE0094FE505EE004F0E0FF121D8EE1647F4742
:1005FE007EB87DFF7C009001701214DDC31214765C
:10060E0060147F7F7E807DF77C009001701214DD78
:10061E00C3121476702E9000A8E070159000A7E01B
:10062E00D39400401DE014F0A3E07016120FA280C8
:10063E00119000A6E0D394014008E014F0E0FF1200
:10064E001D8EE1647F377EC87DF77C0090017012AD
:10065E0014DDC312147660147FA77E587DFF7C00D4
:10066E009001701214DDC3121476706B9000A8E026
:10067E00603BE4F0900174E0900163F07F007E0037
:10068E007DFF7C0012215490015CE06002E4F0904A
:10069E00015AE0700204F090015AE0B40108900093
:1006AE00AD7408F0802FE49000ADF0802890015AD0
:1006BE00E004F0C394024002E4F090015AE0FFB46B
:1006CE0001089000AD7408F08005E49000ADF0EFE5
:1006DE007003120FA2E1647F177EE87DF77C009015
:1006EE0001701214DDC312147660147FCF7E307D3C
:1006FE00FF7C009001701214DDC3121476705A90B4
:10070E000132E004F0C394024002E4F0900132E0C2
:10071E00FF70069000AD7407F0EFB4010E90015C0F
:10072E00E06002E4F09000AD7406F09000AB74024D
:10073E00F09000A8740AF0E4900134F09000F612E4
:10074E00152A000000009000F212152A0000000089
:0A075E009000A712214712225F222B
:101E0C00EFC39405503DEF940040387824E664010C
:101E1C007068F6900134E0FEEF75F007A42408F525
:101E2C0082E43401F583E5822EF582E43583F58373
:101E3C00E09000A8F0900134E004F0D39406403A0E
:101E4C00E4F022EF640570327824E6B4012CE4F659
:101E5C00900133F0A3F09000F612152A0000000058
:101E6C009000F212152A000000001220627C007D06
:0B1E7C0007121331ED049000A8F022C3
:1008000090017EEDF090017DEFF06401600201B691
:100810007F0C1222D29000F61214E9E47B02FAF95E
:10082000F8C312147650289000F612152A00000022
:10083000009000F21214E9E47B07F8C3121476501A
:100840000E9000F212152A0000000078247601E4D0
:10085000FFFEFDFC9000F61214DDC312147670103A
:1008600090017EE0900163F07F007E007DFFC1EC8F
:10087000E47F01FEFDFC9000F61214DDC312147635
:10088000701090017EE0900163F07F007EFF7D009C
:10089000C1ECE47F02FEFDFC9000F61214DDC312F1
:1008A00014766002C1F190017EE0900163F07FFF59
:1008B0007E007D00C1EC90017DE064026002214970
:1008C0007F011222D29000F61214E9E47B7FFAF93C
:1008D000F8C312147650359000F612152A00000065
:1008E000009000F21214E9E47B02F8C3121476506F
:1008F0001B9000F212152A00000000900133E00462
:10090000F0D394044006E4F078247601E4FFFEFD81
:10091000FC9000F21214DDC312147670028194E48C
:100920007F01FEFDFC9000F21214DDC312147670FC
:10093000028105E47F02FEFDFC9000F21214DDC38B
:100940001214766002C1F1A11790017DE06403707A
:10095000417F0C1222D29000F21214E9E47B06FAD5
:10096000F9F8C312147650289000F212152A0000EC
:1009700000009000F61214E9E47B0EF8C31214761E
:10098000500E9000F612152A00000000782476011F
:10099000C1B890017DE06404600241887F011222A9
:1009A000D29000F61214E9E47B7FFAF9F8C312142E
:1009B0007650289000F612152A000000009000F2F0
:1009C0001214E9E47B06F8C3121476500E9000F27C
:1009D00012152A0000000078247601E4FFFEFDFCD9
:1009E0009000F21214DDC312147670028105E47FC8
:1009F00001FEFDFC9000F21214DDC31214767002A9
:100A00008194E47F02FEFDFC9000F21214DDC3121B
:100A100014767002A117E47F03FEFDFC9000F21231
:100A200014DDC31214767002618CE47F04FEFDFCB9
:100A30009000F21214DDC3121476700261F0E47FAC
:100A400005FEFDFC9000F21214DDC3121476702234
:100A5000121E879000F61214DDC3747F9BFFE49A88
:100A6000FEE499FDE498FCE47B02FAF9F81213E441
:100A700081DFE47F06FEFDFC9000F21214DDC3125C
:100A800014766002C1F181FF90017DE0640560028F
:100A9000A12C7F011222D29000F61214E9E47B7F90
:100AA000FAF9F8C312147650289000F612152A00AD
:100AB0000000009000F21214E9E47B0DF8C3121458
:100AC00076500E9000F212152A000000007824766D
:100AD00001E4FFFEFDFC9000F21214DDC312147657
:100AE0007002A117E47F01FEFDFC9000F21214DDFC
:100AF000C312147670028194E47F02FEFDFC900024
:100B0000F21214DDC3121476700261D3E47F03FE87
:100B1000FDFC9000F21214DDC31214767002810500
:100B2000E47F04FEFDFC9000F21214DDC312147683
:100B300070089000F61214C181DFE47F05FEFDFC11
:100B40009000F21214DDC312147670028146E47F25
:100B500006FEFDFC9000F21214DDC3121476701A2A
:100B60009000F61214C1CDEFCD121E92E47B02FA72
:100B7000F9F89000F61214C1802FE47F07FEFDFC07
:100B80009000F21214DDC31214767022121E8790A8
:100B900000F61214DDC3747F9BFFE49AFEE499FD16
:100BA000E498FCE47B02FAF9F81213E4802BE47F6A
:100BB00008FEFDFC9000F21214DDC3121476701EC4
:100BC0009000F61214C1CDEFCD90017EE0FB7F02C4
:100BD000121E999000F61214C1CDEFCD8032E47F41
:100BE00009FEFDFC9000F21214DDC3121476702988
:100BF0009000F61214C1C3747F9FFD90017EE0FB4C
:100C00007F02121E999000F61214C1C3747F9FFDDB
:100C100090017EE0FB7F01A129E47F0AFEFDFC90AC
:100C200000F21214DDC3121476702D7B02FAF9F86B
:100C30009000F61214C11213E4CDEFCD90017EE0C6
:100C4000FB7F02121E999000F61214C1CDEFCD90D9
:100C5000017EE0FBE4FFA129E47F0BFEFDFC900098
:100C6000F21214DDC3121476703E9000F61214DDF9
:100C7000C3747F9BFFE49AFEE499FDE498FCE47B57
:100C800002FAF9F81213E4CDEFCD90017EE0FB7F7C
:100C900002121E999000F61214C1C3747F9FFD903A
:100CA000017EE0FBE4FFA129E47F0CFEFDFC900047
:100CB000F21214DDC312147670319000F61214C1D2
:100CC000CDEFCD121E929000F61214C1CDEFCD9053
:100CD000017EE0FB7F01121E999000F61214C1CD37
:100CE000EFCD90017EE0FB7F02803EE47F0DFEFDB4
:100CF000FC9000F21214DDC31214766002C1F112EE
:100D00001E879000F61214C1C3747F9FFD90017E70
:100D1000E0FB7F01121E999000F61214C1C3747F8C
:100D20009FFD90017EE0FB7F02021E9990017DE015
:100D300064066002C15C7F0C1222D29000F612148D
:100D4000E9E47B7FFAF9F8C312147650289000F694
:100D500012152A000000009000F21214E9E47B064C
:100D6000F8C3121476500E9000F212152A000000FB
:100D70000078247601E4FFFEFDFC9000F21214DD01
:100D8000C3121476701290012B747FF09000F6124B
:100D900014C190012CEF8023E47F01FEFDFC900044
:100DA000F21214DDC312147670169000F61214C1FC
:100DB000C3747F9F90012BF0A3747FF0E4A3F02213
:100DC000E47F02FEFDFC9000F21214DDC3121476E3
:100DD000701490012BF0A3747FF09000F61214C1F0
:100DE00090012DEFF022E47F03FEFDFC9000F21253
:100DF00014DDC3121476701390012BF09000F612DC
:100E000014C1C3747F9F90012C801FE47F04FEFDFA
:100E1000FC9000F21214DDC312147670139000F6E9
:100E20001214C190012BEFF0E4A3F0A3747FF02221
:100E3000E47F05FEFDFC9000F21214DDC31214766F
:100E40006002C1F190012B747FF0E4A3F09000F6F2
:100E50001214C1C3747F9F90012DF02290017DE098
:100E600064076002C1F17F0C1222D2900133E004CA
:100E7000F0D39401403BE4F09000F61214E9E47BD7
:100E800005FAF9F8C312147650279000F612152AC5
:100E9000000000009000F21214E9E40BF8C31214F1
:100EA00076500E9000F212152A0000000078247689
:100EB00001900133E0B401269000F21214C19001B8
:100EC0003575F004EF12155BEE25E025E02583F57E
:100ED000831214C190017EE0900163F080109001B4
:100EE0007EE0900163F07F007E007D007C00122197
:020EF00054228A
:10225F007E007F0E7B017A007991900164E4F0A3F8
:10226F007402F01220007E007F127B017A007997B2
:10227F00900164E4F0A37402F01220007E007F1638
:10228F007B017A00799B900164E4F0A37402F00261
:02229F0020001D
:1022FB0090000E1214CD90009112151E9000121228
:10230B0014CD90009712151E9000161214CD90004C
:04231B009B02151EEE
:0820000090015FEEF0A3EFF088
:1020080075A15575A1AA43B108E4F508D3900165F7
:10201800E09508900164E09400403590015FE0FE8F
:10202800A3E0FF8E858F8412137DFC12137DE5F0EB
:10203800FFECFEEF8E8FF58E75869A90015FE47542
:10204800F002121367740229F9E43AFA050880BC11
:0920580075A15575A1AA53B1F35D
:01206100225C
:1023A800439A08439A01C281C280C285D2EBD28483
:0123B8002202
:03004B000223830A
:10238300C0E0E8C0E0C285D2847825A69FD0E0F8FB
:03239300D0E03265
:101909004101540041015C0041015B0041015A0061
:1019190041015900420157000042015D00004201A6
:031929005527102F
:10192D0090017FEFF0A3EDF0900157E475F00112F7
:10193D001367FEC3E5F09488EE94134014E4900110
:10194D0057F0A3F0900180E094AA5005E49001595E
:10195D00F0900180E0D394C84020900159E004F04C
:10196D00940A4045E4F090015DF0A3F0900154E03D
:10197D0004F094074033E4F0802F90015DE475F09E
:10198D0001121367FEC3E5F094E8EE94034013E4EF
:10199D0090015DF0A3F0900154E004F09407400233
:1019AD00E4F07F017E0012233D900180E0FB900169
:1019BD007FF0900154E0B407004002419E9019D091
:1019CD0025E07321DE21F121FA410F4132415541CC
:1019DD007790017FE0FDE4FF121E99900180E0FBFE
:1019ED00E4FD8033900180E0FBE4FD8041900180B7
:1019FD00E0FBE4FDFF121E9990017FE0FDA3E0FBEB
:101A0D00801590017FE0FDA3E0FBE4FF121E99908D
:101A1D00017FE0FDA3E0FB7F02121E99900180E0A3
:101A2D00FBE4FD806790017FE0FDA3E0FBE4FF1286
:101A3D001E99900180E0FBE4FD7F02121E9990013A
:101A4D007FE0FDA3E0FB8044900180E0FBE4FDFF1F
:101A5D00121E9990017FE0FDA3E0FB7F02121E99FB
:101A6D0090017FE0FDA3E0FB802290017FE0FDA3CC
:101A7D00E0FBE4FF121E9990017FE0FDA3E0FB7FE8
:101A8D0002121E9990017FE0FDA3E0FB7F01121E63
:041A9D00997F00220B
:101AA100900183EFF090015CE0700204F0EDC394CB
:101AB1003C4009900155E4F0A3740AF0EDD394324F
:101AC1005014900155E475F032121367900155746A
:101AD10003F0A374E8F090015DE475F0011213675F
:101AE100FED3900156E095F0900155E09E5020E420
:101AF10090015DF0A3F0900159E004F0C3947F40A0
:101B01000EE4F0900154E004F094064002E4F090F9
:101B11000154E01460371460571460761470026148
:101B2100B914604C2405600261DC900159E0FD7B31
:101B310064E4FF121E99900159E0FFC3747F9FFD79
:101B41007B647F02121E997B64E4FD61D790015989
:101B5100E0FFC3747F9FFD7B64E4FF121E997B64E9
:101B6100E4FD7F02121E99900159E0FD7B648066BD
:101B71007B64E4FDFF121E99900159E0FD7B647FB7
:101B810002121E99900159E0FFC3747F9FFD7B648F
:101B91008044900159E0FD7B64E4FF121E9990019D
:101BA10059E0FFC3747F9FFD7B647F02121E9990F1
:101BB1000159E0FD7B64801E900159E0FFC3747FF1
:101BC1009FFD7B64E4FF121E997B64E4FD7F02129A
:0E1BD1001E997B647D7F7F01121E997F00228A
:030000000207688C
:0C076800787FE4F6D8FD7581250207AF0C
:1012CA00EF8DF0A4A8F0CF8CF0A428CE8DF0A42E38
:0212DA00FE22F2
:1012DC00BC000BBE0029EF8DF084FFADF022E4CCF6
:1012EC00F875F008EF2FFFEE33FEEC33FCEE9DECBF
:1012FC00984005FCEE9DFE0FD5F0E9E4CEFD22ED05
:10130C00F8F5F0EE8420D21CFEADF075F008EF2F4E
:10131C00FFED33FD4007985006D5F0F222C398FD3F
:05132C000FD5F0EA22DC
:10133100C2D5EC30E709B2D5E4C39DFDE49CFCEED7
:1013410030E715B2D5E4C39FFFE49EFE1212DCC361
:10135100E49DFDE49CFC80031212DC30D507C3E45C
:061361009FFFE49EFE2246
:10136700C5F0F8A3E028F0C5F0F8E5821582700211
:061377001583E038F022AE
:10137D00BB010A89828A83E0F5F0A3E0225006873B
:10138D00F009E71922BBFE07E3F5F009E3192289FD
:0B139D00828A83E493F5F07401932230
:1013A80075F008758200EF2FFFEE33FECD33CDCCFC
:1013B80033CCC58233C5829BED9AEC99E58298407F
:1013C8000CF582EE9BFEED9AFDEC99FC0FD5F0D65C
:1013D800E4CEFBE4CDFAE4CCF9A88222B800C1B986
:1013E8000059BA002DEC8BF084CFCECDFCE5F0CBC4
:1013F800F97818EF2FFFEE33FEED33FDEC33FCEBFD
:1014080033FB10D703994004EB99FB0FD8E5E4F9B7
:10141800FA227818EF2FFFEE33FEED33FDEC33FCA4
:10142800C933C910D7059BE99A4007EC9BFCE99A98
:10143800F90FD8E0E4C9FAE4CCFB2275F010EF2FDD
:10144800FFEE33FEED33FDCC33CCC833C810D707DD
:101458009BEC9AE899400AED9BFDEC9AFCE899F818
:0E1468000FD5F0DAE4CDFBE4CCFAE4C8F922AB
:10221B00C2D5E830E70FB2D5E4C39BFBE49AFAE4EE
:10222B0099F9E498F8EC30E717B2D5122251121352
:10223B00E4E4C39BFBE49AFAE499F9E498F880038D
:10224B001213E430D50DE4C39FFFE49EFEE49DFD25
:04225B00E49CFC22E1
:10147600EB9FF5F0EA9E42F0E99D42F0E89C45F0CC
:011486002243
:10148700E8600FECC313FCED13FDEE13FEEF13FF43
:03149700D8F12267
:10149A00E86010ECA2E713FCED13FDEE13FEEF1368
:0414AA00FFD8F02255
:1014AE00E8600FEFC333FFEE33FEED33FDEC33FC9C
:0314BE00D8F12240
:0C14C100E0FCA3E0FDA3E0FEA3E0FF229E
:1014CD00E493FC740193FD740293FE740393FF2265
:0C14DD00E0F8A3E0F9A3E0FAA3E0FB2292
:1014E9007401FF3395E0FEFDFCA3A3A3E02FFFF0F9
:1014F900E582158270021583E03EFEF0E5821582D1
:1015090070021583E03DFDF0E582158270021583B6
:05151900E03CFCF022A3
:0C151E00ECF0A3EDF0A3EEF0A3EFF02240
:10152A00A8828583F0D083D0821215411215411208
:10153A001541121541E473E493A3C583C5F0C5832D
:10154A00C8C582C8F0A3C583C5F0C583C8C582C80B
:01155A00226E
:0C155B00A42582F582E5F03583F583229B
:102062009001751214C17810EC4D4E4F70047CA58E
:102072007DA5C3EC13FCED13FDEE13FEEF13FF5031
:1020820010EC64CCFCED644CFDEE644EFEEF64CECD
:10209200FFD8DF90017512151EEE547FFE229001CB
:0D20A20075EEF0EFA3F0A374A5F0A3F022FB
:10077400021BDFE493A3F8E493A34003F68001F2A1
:1007840008DFF48029E493A3F85407240CC8C33386
:10079400C4540F4420C8834004F456800146F6DF55
:1007A400E4800B010204081020408090177BE47E53
:1007B400019360BCA3FF543F30E509541FFEE4934A
:1007C400A360010ECF54C025E060A840B8E493A311
:1007D400FAE493A3F8E493A3C8C582C8CAC583CA3C
:1007E400F0A3C8C582C8CAC583CADFE9DEE780BEF4
:01192C0000BA
:00000001FF
