:1024120075A15575A1AAE5B954F84406F5B9E4F5D4
:02242200A122F5
:10002E00EF4E601505A105A105A105A105A105A12C
:0A003E0005A1EF1F70EA1E80E72203
:10239000CDEFCDCCEECCED4C600E7FE87E0312008D
:0923A0002EED1D70F11C80EE22EF
:101D7300C29FD29EC29DC2CDC2CC438780900166D2
:101D83001212380000061AE47B0AFAF9F890016689
:101D93001211DF12110290016AEBF0900166121129
:101DA300DFE47B0AFAF9F812110290016612122C91
:101DB30090016AE0C3940540199001661211DFEFA8
:101DC3002401FFE43EFEE43DFDE43CFC9001661289
:101DD300122CE589540F4420F58943C9A09001666C
:0E1DE3001211DFEFF404F58DD28ED299D29C4E
:011DF10022CF
:0A000E00C2C7D2C5D2C475C2642275
:1023A90075A15575A1AAEF600543B101800353B129
:0723B900FEE4F5A1F5FF228F
:030003008FFF224A
:1017510044008E00000000410005004400E9000043
:1017610000004400FC000000004300F5010203609A
:1017710040004E00F720DF00F7A05F00F7609F00F8
:10178100F7E01F00F710EF00F7906F00F750AF0080
:10179100F730CF00F728D700F7B04F00F7708F0070
:1017A100FF50AF00FFF00F00FF708F00F788770048
:1017B100FF28D7604000A900FF986700FFD82700E5
:1017C100FF887700FFA85700FFE81700FF48B70020
:1017D100FF689700FF02FD00FF38C700FF32CD0010
:1017E100FF20DF00F708F700F7689700F748B70018
:1017F100FF788700F7A8576040000600FF0000004F
:1018010000FF00000000FF00FFFFFF00FF8000005D
:1018110022FF22000099660099330000FFFF0000BB
:1018210033AA88009900FF0099660000FF33FF008A
:10183100FF00C00000FF330000FF11440001000061
:1018410000004400F80000000044004600000000D1
:101BA7001224127F1E7E00122390759618E4F59278
:101BB70043973F7593FD7F011223A9E4FF120003AA
:101BC70012001E1223EC7F0A7E001223907F087EEC
:101BD700001222467F087E001221FD122372122472
:101BE70024900097E02406780FF6900095E07003A4
:101BF700740CF0900095E0FF121DF2900094E0B491
:101C0700FF21900093E0B4FF1A900092E0B4FF1315
:101C1700900096E0900153F07FFF7EFF7DFF7C00F0
:101C27001220D4900094E0FD900096E0FBE4FF12B0
:101C37001EFD900093E0FD900096E0FB7F01121ED1
:101C4700FD900092E0FD900096E0FB7F02121EFDE2
:101C5700900096E0FF12211BD2AF900098E070052C
:101C67001207F4800312000690009D1211DF900006
:101C77004A12122CE4900097F0E4FF1200031212AC
:101C87007590004A1211DF90008E1211EBC31211EA
:101C970094601B90004A1211DF900153740AF012EE
:101CA70020D490004A1211DF90008E12122C782552
:0C1CB700E6FF121FC5900000EFF080BD9A
:10127500E490014FF07F01FE12239090000120B30E
:10128500181211DFEF2401FFE43EFEE43DFDE43CCE
:10129500FC90000112122C80071212380000000089
:1012A5009000F820B4181211DFEF2401FFE43EFE90
:1012B500E43DFDE43CFC9000F812122C800712126C
:1012C500380000000090004620B0181211DFEF240E
:1012D50001FFE43EFEE43DFDE43CFC9000461212B5
:1012E5002C800712123800000000E47F06FEFDFC8A
:1012F5009000011211EBC31211944024E47F06FE05
:10130500FDFC9000F81211EBC31211945012E47F0A
:1013150006FEFDFC9000461211EBC31211944072BB
:10132500E47F06FEFDFC9000F81211EBC312119448
:101335004024E47F06FEFDFC9000011211EBC31270
:1013450011945012E47F06FEFDFC9000461211EB4D
:10135500C3121194403CE47F06FEFDFC900046124A
:1013650011EBC31211945002A11DE47F06FEFDFC92
:101375009000011211EBC31211944002A11DE47FEC
:1013850006FEFDFC9000F81211EBC3121194400209
:10139500A11D900005E070137823F69000FC121251
:1013A50038000000009000057401F07823E6700213
:1013B50081CAE4900150F0900150E0FFC3941040C1
:1013C500028199EF25E025E0244EF582E43400F50D
:1013D500831211DF9000FC1211EBC31211946022ED
:1013E500900150E025E025E024A9F582E43400F5DC
:1013F500831211DF9000FC1211EBC31211946002ED
:10140500819190014F7401F0E47F05FEFDFC900091
:10141500011211EBC31211944019900150E025E01F
:1014250025E02406F582E43400F5831211DF9000EF
:101435009D8054E47F05FEFDFC9000F81211EBC37E
:101445001211944019900150E025E025E02406F59D
:1014550082E43400F5831211DF9000A18029E47F36
:1014650005FEFDFC9000461211EBC31211944024B9
:10147500900150E025E025E02406F582E43400F5EE
:10148500831211DF9000A512122C8008900150E004
:1014950004F061BCE47823F69000FC1212380000D9
:1014A5000000E4900005F0900001121238000000E1
:1014B500009000F812123800000000900046121249
:1014C5003800000000E47F06FEFDFC9000011211CB
:1014D500EBC3121194400590009D802CE47F06FE1D
:1014E500FDFC9000F81211EBC31211944005900019
:1014F500A18015E47F06FEFDFC9000461211EBC3AA
:1015050012119440299000A51211DF90004A121281
:101515002CE4900097F08016E4900005F07823E61F
:10152500600CE4F69000FC121238000000009001F7
:071535004FE060031223D612
:01153C00228C
:0D185100010900010E00010B00020C000057
:1022460090014FEEF0A3EFF053C9EF5389F14389A4
:102256000190014FE0FEA3E0FBE4C39BFFE49EFE7A
:1022660074019400FDE49400FC78081211B8900102
:102276006BEFF0E4C39BFF90016DEFF090016BE014
:07228600F58C8F8AD2A9221A
:1021FD0090014FEEF0A3EFF053C9DF53891F4389D0
:10220D001090014FE0FEA3E0FBE4C39BFFE49EFEB4
:10221D0074019400FDE49400FC78081211B890014B
:10222D006CEFF0E4C39BFF90016EEFF090016CE05A
:09223D00F58D8F8BD2ABD28E22FD
:10237200C2CDC2CCC2C953C9BF43C90843C904D2E2
:0E238200CBD2C8E4F5CCF5CD43C602D2AD22D5
:03000B00021F5B76
:101F5B00C0E0C083C082C0D0E8C0E0EFC0E0900119
:101F6B006BE0F58C90016DE0F58A780906E6D39469
:101F7B007F400276007809E6FF900126E0D39F4070
:101F8B0003D38001C39297900127E0D39F4003D3E3
:101F9B008001C39290900128E0D37809964003D337
:101FAB008001C392B190016FE004F0D0E0FFD0E06C
:0A1FBB00F8D0D0D082D083D0E032FD
:03001B00022318A5
:10231800C0E0C083C082C0D075D01890016CE0F5D1
:102328008D90016EE0F58B780E06E6C394054008A3
:1023380078217601780E7600D0D0D082D083D0E094
:012348003262
:03002B00021CC3F1
:101CC300C0E0C0F0C083C082C0D075D01030CE1643
:101CD300780BE67011C2CEC2CA53C9FB7601F5CCAC
:101CE300F5CDD2CA807AA2CEE433780B566071C2A6
:101CF300CE43C90C7600AFCB08E4F608EFF6790DB6
:101D0300E7ADCA18F6ED08F618E6FA08E6FBC39441
:101D1300A0EA940F503A9000FC1211DF78011211DF
:101D2300CC9000FC12122CD3EB94D0EA9407401110
:101D33009000FC1211DFEF4401FFEC9000FC121243
:101D43002C780A06E6C39420401478237601800E8B
:101D53009000FC12123800000000780A7600C2CA14
:101D630030CF02C2CFD0D0D082D083D0F0D0E032F7
:10185E0041014C0A5C013000FF00000000FF000057
:10186E000000FF00FFFF000033AA88009900FF0070
:10187E00FFFFFF41012E0041012F0041012C0041CD
:10188E00012D0041012B0042014D000041012900B4
:10189E004A0100C0F9A4B0999282F88090010F001D
:1018AE005C010A010203040506070305030503058F
:1018BE000306030506030506070506070506074189
:0318CE00012AFFED
:0A001E00E4900126F0A3F0A3F02205
:101FC500EF25E0FF900129E0FEEFD39E400CE49061
:101FD500016FF0900129EFF0801A90014CE0FD901F
:101FE500016FE0D39D400DE4F0EED39F40069001D4
:091FF50029E014F0900129E0FF3D
:011FFE0022C0
:1023490090012AE06F6021C28EEFB4010543C9A054
:10235900800FEFB4040843C92053C97F800353C9D0
:09236900DFD28E90012AEFF02270
:101DF200EFC394014077EFD394FE5071C28EC37447
:101E0200FF9FFFE49400FE7C037DE8120FE890013F
:101E12004FEEF0A3EFF0FBCAEECAE4C39BFFE49AD5
:101E2200FE74019400FDE49400FCE4FB7A01F9F8ED
:101E32001222D490016CEFF090014FE0FEA3E0FB80
:101E4200E4C39BFFE49EFE74019400FDE49400FC55
:101E5200E4FB7A01F9F81222D4CFEBCF90016EEFB6
:0D1E6200F090016CE0F58D8F8BD2ABD28E2D
:011E6F002250
:05211600900096E0FFBF
:10211B00CBEFCB900094E08BF0A4FFAEF07C007D76
:10212B0014120FFA900126EFF0900093E08BF0A4BD
:10213B00FFAEF07C007D14120FFA900127EFF0CF69
:10214B00EBCF900092E08FF0A4FFAEF07C007D14FB
:09215B00120FFA900128EFF022A6
:1020C400900096E0900153F07D007F007E007C003C
:1020D40090014F12122C90014F1211DF781012113F
:1020E400A5900094EFF090014F1211DF78081211BF
:1020F400A5900093EFF090014F1211DF900092EF42
:10210400F0900097E070031223D6900153E0FF0291
:02211400211B8D
:101EEB009000F11211DFC3747F9FFD90017CE0FB2A
:021EFB00E4FF02
:101EFD0090014FEFF07007900094EDF08019900174
:101F0D004FE0FFB40107900093EDF0800AEF6402FB
:101F1D00703B900092EDF0900163E07021CFEBCF1C
:101F2D00ED8FF0A4FFAEF07C007D14120FFA90013E
:101F3D004FE02426F582E43401F583EFF022900181
:0E1F4D004FE02426F582E43401F583EDF02206
:10228D00EF30E003D38001C392B5EF30E103D3808B
:10229D0001C39295EF30E203D38001C39296EF30E4
:1022AD00E303D38001C39294EF30E403D38001C3E1
:1022BD0092B2EF30E503D38001C39293EF30E60382
:0722CD00D38001C3929222AD
:1023C000EFD39409500F74002FF582E43401F583A4
:0623D000E0FF12228D2245
:03000600D28C2277
:0907F400C28CC297C290C2B1226E
:1021B10090009A7402F090009CEFF075F007A4244F
:1021C10003F582E43401F583E0900097F01223D601
:1021D100E490012FF09000F11212380000000090FD
:1021E10000ED12123800000000900096E0900153BB
:0C21F100F07F007E007D007C000220D406
:10200000E4900181F0900098E0605420B31930B062
:102010001630B4137F287E0012239020B34130B0D5
:102020003E30B43B7F052230B31920B01630B413D4
:102030007F287E0012239030B32520B02230B41FB9
:102040007F022230B31930B01620B4137F287E00EF
:1020500012239030B30930B00620B4037F03227FEF
:01206000007F
:01206100225C
:05153D00900179EFF0C0
:1015420012200090017AEFF024FE7002E10D147077
:1015520002C1AB24FD7002C17B046002E146780F38
:1015620006E6C394074063900163E06002E4F090F2
:10157200009CE0B4060312000690009AE0B4020850
:10158200A3E0900097F08019900097E004F0D394C4
:10159200074006E4780FF604F0900097E090009B75
:1015A200F090009A7401F0E490009CF090012FF00A
:1015B2009000F1121238000000009000ED12123873
:1015C200000000001220C41223D6780FE6C394074D
:1015D2004002E146900097E0640A704C90014C741E
:1015E20014F0E4900097F090009CE0B4060312001F
:1015F2000690012EE004F0D394064002E4F090013C
:101602002EE025E025E02430F582E43401F5831252
:1016120011DF900179E0900153F01220D490016122
:10162200E0B401028044804AE4900097F090009C6C
:10163200E0B4060312000690012EE004F0D39406F3
:101642004002E4F090012EE025E025E02430F5820E
:10165200E43401F5831211DF900096E0900153F01B
:101662001220D4900161E0B4010890009C7408F04B
:10167200E10BE490009CF0E10B900161E070047FCB
:101682000180027F00900161EFF0BF010890009C91
:101692007408F08005E490009CF0900096E09001C0
:1016A20053F07DFF1220CEE14390012BE004F0C302
:1016B20094024002E4F090012BE064017015900165
:1016C20063E06002E4F090009A7402F090009C746F
:1016D200068013900163E06002E4F090009A7402C5
:1016E200F090009C7407F0900097740AF0E4900167
:1016F2002FF09000F1121238000000009000ED125D
:101702001238000000001220C48036900097E0706A
:1017120018900096E004F0D394144002E4F0900094
:1017220097E0701D1221168018900095E02402F0B7
:10173200E0D394FE40037401F0900095E0FF121D87
:0E174200F21223D612200090017AEFF070F61A
:011750002276
:10004E0090017012122C7F677E987DFF7C009001CC
:10005E00701211EBC312119460147FDF7E207DF7B6
:10006E007C009001701211EBC31211947023E49076
:10007E000097F0900174E0900153F07F007E007DB8
:10008E00FF7C001220D4900163E07002E167E4F07F
:10009E00227F777E887DFF7C009001701211EBC36A
:1000AE0012119460147F9F7E607DF77C009001702A
:1000BE001211EBC31211947023E4900097F090018B
:1000CE0074E0900153F07FFF7E007D007C001220D3
:1000DE00D4900163E07002E167E4F0227F277ED8BE
:1000EE007DFF7C009001701211EBC312119460140D
:1000FE007F5F7EA07DF77C009001701211EBC31222
:10010E0011947023E4900097F0900174E0900153E5
:10011E00F07F007EFF7D007C001220D4900163E012
:10012E007002E167E4F0227F577EA87DFF7C00908D
:10013E0001701211EBC312119460147F1F7EE07DCB
:10014E00F77C009001701211EBC31211947023E42E
:10015E00900097F0900174E0900153F07FFF7EFFC6
:10016E007DFF7C001220D4900163E07002E167E411
:10017E00F0227F177EE87DFF7C009001701211EB5C
:10018E00C312119460147FEF7E107DF77C009001F6
:10019E00701211EBC31211947023E4900097F0903B
:1001AE000174E0900153F07F007E807DFF7C001291
:1001BE0020D4900163E07002E167E4F0227FC77EF5
:1001CE00387DFF7C009001701211EBC31211946008
:1001DE00147FD77E287DF77C009001701211EBC33F
:1001EE001211947023E4900097F0900174E0900146
:1001FE0053F07F007EFF7DFF7C001220D4900163C0
:10020E00E07002E167E4F0227FCD7E327DFF7C005C
:10021E009001701211EBC312119460147F4F7EB0D7
:10022E007DF77C009001701211EBC31211947023B4
:10023E00E4900097F0900174E0900153F07F887E77
:10024E00AA7D337C001220D4900163E07002E16736
:10025E00E4F0227FDF7E207DFF7C00900170121182
:10026E00EBC312119460147F8F7E707DF77C00902B
:10027E0001701211EBC31211947023E4900097F0E9
:10028E00900174E0900153F07FFF7E007D997C0019
:10029E001220D4900163E07002E167E4F0227FB790
:1002AE007E487DFF7C009001701211EBC3121194F9
:1002BE0060147F6F7E907DF77C009001701211EBC1
:1002CE00C31211947023E4900097F0900174E090A3
:1002DE000153F07F227EFF7D227C001220D49001FC
:1002EE0063E07002E167E4F0227F977E687DFF7C19
:1002FE00009001701211EBC312119460147FAF7E47
:10030E00507DF77C009001701211EBC312119470A6
:10031E0023E4900097F0900174E0900153F07F6613
:10032E007E997D007C001220D4900163E07002E182
:10033E0067E4F0227FFD7E027DFF7C00900170124B
:10034E0011EBC312119460147FCF7E307DF77C00C9
:10035E009001701211EBC31211947023E490009768
:10036E00F0900174E0900153F07F007E337D997C14
:10037E00001220D4900163E07002E167E4F0227F66
:10038E00F77E087DF77C009001701211EBC31211FD
:10039E009460147FAF7E507DFF7C0090017012112F
:1003AE00EBC31211947023E4900097F0900174E067
:1003BE00900153F07F007E667D997C001220D490D0
:1003CE000163E07002E167E4F0227FB77E487DF7BB
:1003DE007C009001701211EBC312119460147F8F88
:1003EE007E707DFF7C009001701211EBC312119490
:1003FE007023E4900097F0900174E0900153F07F29
:10040E00C07E007DFF7C001220D4900163E070025C
:10041E00E167E4F0227F977E687DF77C00900170A3
:10042E001211EBC312119460147F0F7EF07DFF7CCE
:10043E00009001701211EBC31211947023E490001E
:10044E0097F0900174E0900153F07FFF7E337DFFB3
:10045E007C001220D4900163E07002E167E4F02288
:10046E007F877E787DFF7C009001701211EBC312A6
:10047E00119460147F777E887DF77C009001701256
:10048E0011EBC31211947023E4900097F090017455
:10049E00E0900153F07F337EFF7D007C001220D46C
:1004AE00900163E07002E167E4F0227F577EA87D41
:1004BE00F77C009001701211EBC312119460147F3F
:1004CE00D77E287DFF7C009001701211EBC31211B4
:1004DE00947023E4900097F0900174E0900153F033
:1004EE007F117EFF7D007C001220D4900163E070AE
:1004FE0002E167E4F0227F4D7EB27DFF7C00900129
:10050E00701211EBC312119460147F2F7ED07DF701
:10051E007C009001701211EBC3121194704D90007B
:10052E009AE0B40208A3E0900097F080169000972E
:10053E00E004F0D3940740037401F0900097E0902C
:10054E00009BF090009A7401F0E490009CF09001F2
:10055E002FF09000F1121238000000009000ED1202
:10056E00123800000000900174E1617FFF7E007D73
:10057E00FF7C009001701211EBC312119460147F76
:10058E000F7EF07DF77C009001701211EBC31211FB
:10059E009470057F010221B17F6F7E907DFF7C00FC
:1005AE009001701211EBC312119460147FFF7E0044
:1005BE007DF77C009001701211EBC3121194702E16
:1005CE00900097E07015900096E0C39414501DE0D3
:1005DE0004F0A3E0706C122116E164900095E0C364
:1005EE0094FE505EE004F0E0FF121DF2E1647F47DE
:1005FE007EB87DFF7C009001701211EBC312119436
:10060E0060147F7F7E807DF77C009001701211EB6D
:10061E00C3121194702E900097E07015900096E022
:10062E00D39400401DE014F0A3E070161221168042
:10063E0011900095E0D394014008E014F0E0FF1211
:10064E001DF2E1647F377EC87DF77C009001701249
:10065E0011EBC312119460147FA77E587DFF7C00AE
:10066E009001701211EBC3121194706B900097E011
:10067E00603BE4F0900174E0900153F07F007E0047
:10068E007DFF7C001220D4900163E06002E4F090C4
:10069E000161E0700204F0900161E0B40108900085
:1006AE009C7408F0802FE490009CF08028900161EB
:1006BE00E004F0C394024002E4F0900161E0FFB464
:1006CE00010890009C7408F08005E490009CF0EF07
:1006DE007003122116E1647F177EE87DF77C00908F
:1006EE0001701211EBC312119460147FCF7E307D16
:1006FE00FF7C009001701211EBC3121194705A908E
:10070E00012DE004F0C394024002E4F090012DE0CC
:10071E00FF700690009C7407F0EFB4010E90016319
:10072E00E06002E4F090009C7406F090009A74026F
:10073E00F0900097740AF0E490012FF09000F112FF
:10074E001238000000009000ED1212380000000078
:0A075E009000961220C71223D62245
:101E7000EFC39405503DEF940040387824E66401A8
:101E80007068F690012FE0FEEF75F007A42403F5CB
:101E900082E43401F583E5822EF582E43583F5830F
:101EA000E0900097F090012FE004F0D39406403AC0
:101EB000E4F022EF640570327824E6B4012CE4F6F5
:101EC00090012EF0A3F09000F112123800000000F3
:101ED0009000ED121238000000001221647C007D99
:0B1EE0000712104FED04900097F02255
:1008000090017CEDF090017BEFF06401600201B695
:100810007F0C1223499000F11211F7E47B02FAF9E0
:10082000F8C312119450289000F112123800000001
:10083000009000ED1211F7E47B07F8C312119450F9
:100840000E9000ED1212380000000078247601E4CA
:10085000FFFEFDFC9000F11211EBC3121194701019
:1008600090017CE0900153F07F007E007DFFC1ECA1
:10087000E47F01FEFDFC9000F11211EBC312119414
:10088000701090017CE0900153F07F007EFF7D00AE
:10089000C1ECE47F02FEFDFC9000F11211EBC312EB
:1008A00011946002C1F190017CE0900153F07FFF50
:1008B0007E007D00C1EC90017BE064026002214972
:1008C0007F011223499000F11211F7E47B7FFAF9BE
:1008D000F8C312119450359000F112123800000044
:1008E000009000ED1211F7E47B02F8C3121194504E
:1008F0001B9000ED1212380000000090012EE00461
:10090000F0D394044006E4F078247601E4FFFEFD81
:10091000FC9000ED1211EBC312119470028194E46B
:100920007F01FEFDFC9000ED1211EBC312119470DB
:10093000028105E47F02FEFDFC9000ED1211EBC385
:100940001211946002C1F1A11790017BE064037061
:10095000417F0C1223499000ED1211F7E47B06FA57
:10096000F9F8C312119450289000ED1212380000CB
:1009700000009000F11211F7E47B0EF8C3121194FD
:10098000500E9000F1121238000000007824760119
:10099000C1B890017BE06404600241887F011223AA
:1009A000499000F11211F7E47B7FFAF9F8C31211B4
:1009B0009450289000F1121238000000009000EDD1
:1009C0001211F7E47B06F8C3121194500E9000ED5B
:1009D0001212380000000078247601E4FFFEFDFCCE
:1009E0009000ED1211EBC312119470028105E47FA7
:1009F00001FEFDFC9000ED1211EBC3121194700288
:100A00008194E47F02FEFDFC9000ED1211EBC31215
:100A100011947002A117E47F03FEFDFC9000ED121B
:100A200011EBC31211947002618CE47F04FEFDFC93
:100A30009000ED1211EBC3121194700261F0E47F8B
:100A400005FEFDFC9000ED1211EBC3121194702213
:100A5000121EEB9000F11211EBC3747F9BFFE49A1E
:100A6000FEE499FDE498FCE47B02FAF9F812110225
:100A700081DFE47F06FEFDFC9000ED1211EBC31256
:100A800011946002C1F181FF90017BE06405600276
:100A9000A12C7F011223499000F11211F7E47B7F12
:100AA000FAF9F8C312119450289000F1121238008C
:100AB0000000009000ED1211F7E47B0DF8C3121155
:100AC00094500E9000ED1212380000000078247649
:100AD00001E4FFFEFDFC9000ED1211EBC312119436
:100AE0007002A117E47F01FEFDFC9000ED1211EBF6
:100AF000C312119470028194E47F02FEFDFC900009
:100B0000ED1211EBC3121194700261D3E47F03FE66
:100B1000FDFC9000ED1211EBC312119470028105DF
:100B2000E47F04FEFDFC9000ED1211EBC312119462
:100B300070089000F11211DF81DFE47F05FEFDFCFB
:100B40009000ED1211EBC312119470028146E47F04
:100B500006FEFDFC9000ED1211EBC3121194701A09
:100B60009000F11211DFCDEFCD121EF6E47B02FAF8
:100B7000F9F89000F11211DF802FE47F07FEFDFCF1
:100B80009000ED1211EBC31211947022121EEB9023
:100B900000F11211EBC3747F9BFFE49AFEE499FD10
:100BA000E498FCE47B02FAF9F8121102802BE47F4E
:100BB00008FEFDFC9000ED1211EBC3121194701EA3
:100BC0009000F11211DFCDEFCD90017CE0FB7F02B0
:100BD000121EFD9000F11211DFCDEFCD8032E47FC7
:100BE00009FEFDFC9000ED1211EBC3121194702967
:100BF0009000F11211DFC3747F9FFD90017CE0FB38
:100C00007F02121EFD9000F11211DFC3747F9FFD61
:100C100090017CE0FB7F01A129E47F0AFEFDFC90AE
:100C200000ED1211EBC3121194702D7B02FAF9F84A
:100C30009000F11211DF121102CDEFCD90017CE096
:100C4000FB7F02121EFD9000F11211DFCDEFCD905F
:100C5000017CE0FBE4FFA129E47F0BFEFDFC90009A
:100C6000ED1211EBC3121194703E9000F11211EBD2
:100C7000C3747F9BFFE49AFEE499FDE498FCE47B57
:100C800002FAF9F8121102CDEFCD90017CE0FB7F62
:100C900002121EFD9000F11211DFC3747F9FFD90C0
:100CA000017CE0FBE4FFA129E47F0CFEFDFC900049
:100CB000ED1211EBC312119470319000F11211DF9B
:100CC000CDEFCD121EF69000F11211DFCDEFCD90D9
:100CD000017CE0FB7F01121EFD9000F11211DFCDBF
:100CE000EFCD90017CE0FB7F02803EE47F0DFEFDB6
:100CF000FC9000ED1211EBC31211946002C1F112CD
:100D00001EEB9000F11211DFC3747F9FFD90017CF8
:100D1000E0FB7F01121EFD9000F11211DFC3747F12
:100D20009FFD90017CE0FB7F02021EFD90017BE0B5
:100D300064066002C15C7F0C1223499000F112111D
:100D4000F7E47B7FFAF9F8C312119450289000F170
:100D5000121238000000009000ED1211F7E47B063B
:100D6000F8C3121194500E9000ED121238000000DA
:100D70000078247601E4FFFEFDFC9000ED1211EBFB
:100D8000C31211947012900126747FF09000F1123A
:100D900011DF900127EF8023E47F01FEFDFC90002E
:100DA000ED1211EBC312119470169000F11211DFC5
:100DB000C3747F9F900126F0A3747FF0E4A3F02218
:100DC000E47F02FEFDFC9000ED1211EBC3121194C2
:100DD0007014900126F0A3747FF09000F11211DFDF
:100DE000900128EFF022E47F03FEFDFC9000ED125D
:100DF00011EBC31211947013900126F09000F112C0
:100E000011DFC3747F9F900127801FE47F04FEFDE4
:100E1000FC9000ED1211EBC312119470139000F1CD
:100E20001211DF900126EFF0E4A3F0A3747FF0220B
:100E3000E47F05FEFDFC9000ED1211EBC31211944E
:100E40006002C1F1900126747FF0E4A3F09000F1FC
:100E50001211DFC3747F9F900128F02290017BE084
:100E600064076002C1F17F0C12234990012EE00457
:100E7000F0D39401403BE4F09000F11211F7E47BD1
:100E800005FAF9F8C312119450279000F1121238A4
:100E9000000000009000ED1211F7E40BF8C31211EE
:100EA00094500E9000ED1212380000000078247665
:100EB0000190012EE0B401269000ED1211DF9001A7
:100EC0003075F004EF121269EE25E025E02583F578
:100ED000831211DF90017CE0900153F080109001AB
:100EE0007CE0900153F07F007E007D007C001220AA
:020EF000D4220A
:1023D6007B017A007992900159E4F0A3740CF07FA6
:0623E600007E26022062C9
:1023EC0078927C007D017BFF7A2679007E007F1736
:0323FC00020FC20B
:08206200900154EEF0A3EFF031
:10206A0075A15575A1AA43B108E4F508D390015AA0
:10207A00E09508900159E094004035900154E0FE43
:10208A00A3E0FF8E858F8412109BFC12109BE5F053
:10209A00FFECFEEF8E8FF58E75869A900154E475EB
:1020AA00F002121085740229F9E43AFA050880BC94
:0920BA0075A15575A1AA53B1F3FB
:0120C30022FA
:10242400439A08439A01C281C280C285D2EBD28406
:012434002285
:03004B000223FF8E
:1023FF00C0E0E8C0E0C285D2847825A69FD0E0F87F
:03240F00D0E032E8
:1018D10041015B004101630041016200410161007E
:1018E1004101600042015E000042016400004201CA
:0318F1005C271061
:1018F50090017FEFF0A3EDF090015EE475F0011229
:101905001085FEC3E5F09488EE94134014E490012D
:101915005EF0A3F0900180E094AA5005E490016088
:10192500F0900180E0D394C84020900160E004F07D
:10193500940A4045E4F0900164F0A3F090015BE067
:1019450004F094074033E4F0802F900164E475F0CF
:1019550001121085FEC3E5F094E8EE94034013E40C
:10196500900164F0A3F090015BE004F0940740025D
:10197500E4F07F017E00122390900180E0FB90014E
:101985007FF090015BE0B407004002416690199832
:1019950025E07321A621B921C221D721FA411D4194
:1019A5003F90017FE0FDE4FF121EFD900180E0FB0A
:1019B500E4FD8033900180E0FBE4FD8041900180EF
:1019C500E0FBE4FDFF121EFD90017FE0FDA3E0FBBF
:1019D500801590017FE0FDA3E0FBE4FF121EFD9062
:1019E500017FE0FDA3E0FB7F02121EFD900180E078
:1019F500FBE4FD806790017FE0FDA3E0FBE4FF12BF
:101A05001EFD900180E0FBE4FD7F02121EFD9001AA
:101A15007FE0FDA3E0FB8044900180E0FBE4FDFF57
:101A2500121EFD90017FE0FDA3E0FB7F02121EFD6B
:101A350090017FE0FDA3E0FB802290017FE0FDA304
:101A4500E0FBE4FF121EFD90017FE0FDA3E0FB7FBC
:101A550002121EFD90017FE0FDA3E0FB7F01121E37
:041A6500FD7F0022DF
:101A6900900182EFF0900163E0700204F0EDC394FD
:101A79003C400990015CE4F0A3740AF0EDD3943280
:101A8900501490015CE475F03212108590015C7479
:101A990003F0A374E8F0900164E475F00112108575
:101AA900FED390015DE095F090015CE09E5020E44A
:101AB900900164F0A3F0900160E004F0C3947F40CA
:101AC9000EE4F090015BE004F094064002E4F0902B
:101AD900015BE0146037146057146076147002617A
:101AE9008114604C2405600261A4900160E0FD7BD3
:101AF90064E4FF121EFD900160E0FFC3747F9FFD47
:101B09007B647F02121EFD7B64E4FD619F9001608E
:101B1900E0FFC3747F9FFD7B64E4FF121EFD7B64BD
:101B2900E4FD7F02121EFD900160E0FD7B6480668A
:101B39007B64E4FDFF121EFD900160E0FD7B647F84
:101B490002121EFD900160E0FFC3747F9FFD7B645C
:101B59008044900160E0FD7B64E4FF121EFD90016A
:101B690060E0FFC3747F9FFD7B647F02121EFD90BE
:101B79000160E0FD7B64801E900160E0FFC3747F1B
:101B89009FFD7B64E4FF121EFD7B64E4FD7F02126E
:0E1B99001EFD7B647D7F7F01121EFD7F0022FA
:030000000207688C
:0C076800787FE4F6D8FD7581250207AF0C
:100EF200E709F608DFFA8046E709F208DFFA803EE2
:100F020088828C83E709F0A3DFFA8032E309F608CE
:100F1200DFFA8078E309F208DFFA807088828C8336
:100F2200E309F0A3DFFA806489828A83E0A3F608EA
:100F3200DFFA805889828A83E0A3F208DFFA804CC4
:100F420080D280FA80C680D4806980F2803380109B
:100F520080A680EA809A80A880DA80E280CA803304
:100F620089828A83ECFAE493A3C8C582C8CCC5837C
:100F7200CCF0A3C8C582C8CCC583CCDFE9DEE7804C
:100F82000D89828A83E493A3F608DFF9ECFAA9F0CB
:100F9200EDFB2289828A83ECFAE0A3C8C582C8CC21
:100FA200C583CCF0A3C8C582C8CCC583CCDFEADE3A
:100FB200E880DB89828A83E493A3F208DFF980CC9C
:100FC20088F0EF60010E4E60C388F0ED2402B40495
:100FD2000050B9F582EB2402B4040050AF2323453C
:060FE2008223900F427310
:100FE800EF8DF0A4A8F0CF8CF0A428CE8DF0A42E1D
:020FF800FE22D7
:100FFA00BC000BBE0029EF8DF084FFADF022E4CCDB
:10100A00F875F008EF2FFFEE33FEEC33FCEE9DECA3
:10101A00984005FCEE9DFE0FD5F0E9E4CEFD22EDE9
:10102A00F8F5F0EE8420D21CFEADF075F008EF2F33
:10103A00FFED33FD4007985006D5F0F222C398FD24
:05104A000FD5F0EA22C1
:10104F00C2D5EC30E709B2D5E4C39DFDE49CFCEEBC
:10105F0030E715B2D5E4C39FFFE49EFE120FFAC32B
:10106F00E49DFDE49CFC8003120FFA30D507C3E426
:06107F009FFFE49EFE222B
:10108500C5F0F8A3E028F0C5F0F8E58215827002F6
:061095001583E038F02293
:10109B00BB010A89828A83E0F5F0A3E02250068720
:1010AB00F009E71922BBFE07E3F5F009E3192289E2
:0B10BB00828A83E493F5F07401932215
:1010C60075F008758200EF2FFFEE33FECD33CDCCE1
:1010D60033CCC58233C5829BED9AEC99E582984064
:1010E6000CF582EE9BFEED9AFDEC99FC0FD5F0D641
:1010F600E4CEFBE4CDFAE4CCF9A88222B800C1B96B
:101106000059BA002DEC8BF084CFCECDFCE5F0CBA8
:10111600F97818EF2FFFEE33FEED33FDEC33FCEBE1
:1011260033FB10D703994004EB99FB0FD8E5E4F99C
:10113600FA227818EF2FFFEE33FEED33FDEC33FC89
:10114600C933C910D7059BE99A4007EC9BFCE99A7D
:10115600F90FD8E0E4C9FAE4CCFB2275F010EF2FC2
:10116600FFEE33FEED33FDCC33CCC833C810D707C2
:101176009BEC9AE899400AED9BFDEC9AFCE899F8FD
:0E1186000FD5F0DAE4CDFBE4CCFAE4C8F92290
:1022D400C2D5E830E70FB2D5E4C39BFBE49AFAE435
:1022E40099F9E498F8EC30E717B2D512230A1211E1
:1022F40002E4C39BFBE49AFAE499F9E498F88003B6
:1023040012110230D50DE4C39FFFE49EFEE49DFD4F
:04231400E49CFC2227
:10119400EB9FF5F0EA9E42F0E99D42F0E89C45F0B1
:0111A4002228
:1011A500E8600FECC313FCED13FDEE13FEEF13FF28
:0311B500D8F1224C
:1011B800E86010ECA2E713FCED13FDEE13FEEF134D
:0411C800FFD8F0223A
:1011CC00E8600FEFC333FFEE33FEED33FDEC33FC81
:0311DC00D8F12225
:0C11DF00E0FCA3E0FDA3E0FEA3E0FF2283
:0C11EB00E0F8A3E0F9A3E0FAA3E0FB2287
:1011F7007401FF3395E0FEFDFCA3A3A3E02FFFF0EE
:10120700E582158270021583E03EFEF0E5821582C5
:1012170070021583E03DFDF0E582158270021583AB
:05122700E03CFCF02298
:0C122C00ECF0A3EDF0A3EEF0A3EFF02235
:10123800A8828583F0D083D08212124F12124F12E7
:10124800124F12124FE473E493A3C583C5F0C5830C
:10125800C8C582C8F0A3C583C5F0C583C8C582C800
:011268002263
:0C126900A42582F582E5F03583F5832290
:102164009001751211DF7810EC4D4E4F70047CA570
:102174007DA5C3EC13FCED13FDEE13FEEF13FF502E
:1021840010EC64CCFCED644CFDEE644EFEEF64CECA
:10219400FFD8DF90017512122CEE547FFE229001BD
:0D21A40075EEF0EFA3F0A374A5F0A3F022F8
:10077400021BA7E493A3F8E493A34003F68001F2D9
:1007840008DFF48029E493A3F85407240CC8C33386
:10079400C4540F4420C8834004F456800146F6DF55
:1007A400E4800B0102040810204080901751E47E7D
:1007B400019360BCA3FF543F30E509541FFEE4934A
:1007C400A360010ECF54C025E060A840B8E493A311
:1007D400FAE493A3F8E493A3C8C582C8CAC583CA3C
:1007E400F0A3C8C582C8CAC583CADFE9DEE780BEF4
:0118F40000F3
:00000001FF
